{
  "address": "0x2A40a59B8A90a62352905723144E23e1743988cc",
  "abi": [
    {
      "inputs": [],
      "stateMutability": "nonpayable",
      "type": "constructor"
    },
    {
      "anonymous": false,
      "inputs": [
        {
          "indexed": true,
          "internalType": "address",
          "name": "account",
          "type": "address"
        },
        {
          "indexed": true,
          "internalType": "address",
          "name": "operator",
          "type": "address"
        },
        {
          "indexed": false,
          "internalType": "bool",
          "name": "approved",
          "type": "bool"
        }
      ],
      "name": "ApprovalForAll",
      "type": "event"
    },
    {
      "anonymous": false,
      "inputs": [
        {
          "indexed": true,
          "internalType": "address",
          "name": "previousOwner",
          "type": "address"
        },
        {
          "indexed": true,
          "internalType": "address",
          "name": "newOwner",
          "type": "address"
        }
      ],
      "name": "OwnershipTransferred",
      "type": "event"
    },
    {
      "anonymous": false,
      "inputs": [
        {
          "indexed": true,
          "internalType": "address",
          "name": "operator",
          "type": "address"
        },
        {
          "indexed": true,
          "internalType": "address",
          "name": "from",
          "type": "address"
        },
        {
          "indexed": true,
          "internalType": "address",
          "name": "to",
          "type": "address"
        },
        {
          "indexed": false,
          "internalType": "uint256[]",
          "name": "ids",
          "type": "uint256[]"
        },
        {
          "indexed": false,
          "internalType": "uint256[]",
          "name": "values",
          "type": "uint256[]"
        }
      ],
      "name": "TransferBatch",
      "type": "event"
    },
    {
      "anonymous": false,
      "inputs": [
        {
          "indexed": true,
          "internalType": "address",
          "name": "operator",
          "type": "address"
        },
        {
          "indexed": true,
          "internalType": "address",
          "name": "from",
          "type": "address"
        },
        {
          "indexed": true,
          "internalType": "address",
          "name": "to",
          "type": "address"
        },
        {
          "indexed": false,
          "internalType": "uint256",
          "name": "id",
          "type": "uint256"
        },
        {
          "indexed": false,
          "internalType": "uint256",
          "name": "value",
          "type": "uint256"
        }
      ],
      "name": "TransferSingle",
      "type": "event"
    },
    {
      "anonymous": false,
      "inputs": [
        {
          "indexed": false,
          "internalType": "string",
          "name": "value",
          "type": "string"
        },
        {
          "indexed": true,
          "internalType": "uint256",
          "name": "id",
          "type": "uint256"
        }
      ],
      "name": "URI",
      "type": "event"
    },
    {
      "inputs": [
        {
          "internalType": "address",
          "name": "account",
          "type": "address"
        },
        {
          "internalType": "uint256",
          "name": "id",
          "type": "uint256"
        }
      ],
      "name": "balanceOf",
      "outputs": [
        {
          "internalType": "uint256",
          "name": "",
          "type": "uint256"
        }
      ],
      "stateMutability": "view",
      "type": "function"
    },
    {
      "inputs": [
        {
          "internalType": "address[]",
          "name": "accounts",
          "type": "address[]"
        },
        {
          "internalType": "uint256[]",
          "name": "ids",
          "type": "uint256[]"
        }
      ],
      "name": "balanceOfBatch",
      "outputs": [
        {
          "internalType": "uint256[]",
          "name": "",
          "type": "uint256[]"
        }
      ],
      "stateMutability": "view",
      "type": "function"
    },
    {
      "inputs": [
        {
          "internalType": "address",
          "name": "account",
          "type": "address"
        },
        {
          "internalType": "address",
          "name": "operator",
          "type": "address"
        }
      ],
      "name": "isApprovedForAll",
      "outputs": [
        {
          "internalType": "bool",
          "name": "",
          "type": "bool"
        }
      ],
      "stateMutability": "view",
      "type": "function"
    },
    {
      "inputs": [
        {
          "internalType": "uint256",
          "name": "tokenId",
          "type": "uint256"
        },
        {
          "internalType": "uint256",
          "name": "amount",
          "type": "uint256"
        }
      ],
      "name": "mint",
      "outputs": [],
      "stateMutability": "payable",
      "type": "function"
    },
    {
      "inputs": [],
      "name": "owner",
      "outputs": [
        {
          "internalType": "address",
          "name": "",
          "type": "address"
        }
      ],
      "stateMutability": "view",
      "type": "function"
    },
    {
      "inputs": [
        {
          "internalType": "uint256",
          "name": "tokenId",
          "type": "uint256"
        },
        {
          "internalType": "uint256",
          "name": "price",
          "type": "uint256"
        },
        {
          "internalType": "uint256",
          "name": "limitAmount",
          "type": "uint256"
        }
      ],
      "name": "register",
      "outputs": [],
      "stateMutability": "nonpayable",
      "type": "function"
    },
    {
      "inputs": [],
      "name": "renounceOwnership",
      "outputs": [],
      "stateMutability": "nonpayable",
      "type": "function"
    },
    {
      "inputs": [
        {
          "internalType": "uint256",
          "name": "_tokenId",
          "type": "uint256"
        },
        {
          "internalType": "uint256",
          "name": "_salePrice",
          "type": "uint256"
        }
      ],
      "name": "royaltyInfo",
      "outputs": [
        {
          "internalType": "address",
          "name": "",
          "type": "address"
        },
        {
          "internalType": "uint256",
          "name": "",
          "type": "uint256"
        }
      ],
      "stateMutability": "view",
      "type": "function"
    },
    {
      "inputs": [
        {
          "internalType": "address",
          "name": "from",
          "type": "address"
        },
        {
          "internalType": "address",
          "name": "to",
          "type": "address"
        },
        {
          "internalType": "uint256[]",
          "name": "ids",
          "type": "uint256[]"
        },
        {
          "internalType": "uint256[]",
          "name": "amounts",
          "type": "uint256[]"
        },
        {
          "internalType": "bytes",
          "name": "data",
          "type": "bytes"
        }
      ],
      "name": "safeBatchTransferFrom",
      "outputs": [],
      "stateMutability": "nonpayable",
      "type": "function"
    },
    {
      "inputs": [
        {
          "internalType": "address",
          "name": "from",
          "type": "address"
        },
        {
          "internalType": "address",
          "name": "to",
          "type": "address"
        },
        {
          "internalType": "uint256",
          "name": "id",
          "type": "uint256"
        },
        {
          "internalType": "uint256",
          "name": "amount",
          "type": "uint256"
        },
        {
          "internalType": "bytes",
          "name": "data",
          "type": "bytes"
        }
      ],
      "name": "safeTransferFrom",
      "outputs": [],
      "stateMutability": "nonpayable",
      "type": "function"
    },
    {
      "inputs": [
        {
          "internalType": "address",
          "name": "operator",
          "type": "address"
        },
        {
          "internalType": "bool",
          "name": "approved",
          "type": "bool"
        }
      ],
      "name": "setApprovalForAll",
      "outputs": [],
      "stateMutability": "nonpayable",
      "type": "function"
    },
    {
      "inputs": [
        {
          "internalType": "bytes4",
          "name": "interfaceId",
          "type": "bytes4"
        }
      ],
      "name": "supportsInterface",
      "outputs": [
        {
          "internalType": "bool",
          "name": "",
          "type": "bool"
        }
      ],
      "stateMutability": "view",
      "type": "function"
    },
    {
      "inputs": [
        {
          "internalType": "address",
          "name": "newOwner",
          "type": "address"
        }
      ],
      "name": "transferOwnership",
      "outputs": [],
      "stateMutability": "nonpayable",
      "type": "function"
    },
    {
      "inputs": [
        {
          "internalType": "uint256",
          "name": "",
          "type": "uint256"
        }
      ],
      "name": "uri",
      "outputs": [
        {
          "internalType": "string",
          "name": "",
          "type": "string"
        }
      ],
      "stateMutability": "view",
      "type": "function"
    }
  ],
  "transactionHash": "0xffbe3ea32addc5c60dcf6062aa351980c66128cf0f885b0708641d94e9ab4f55",
  "args": [],
  "numDeployments": 1,
  "solcInputHash": "aae900644b56e9cace67027cbac73331",
  "bytecode": "0x60806040523480156200001157600080fd5b5060405180606001604052806035815260200162001cd160359139620000378162000049565b50620000433362000062565b62000197565b80516200005e906002906020840190620000b4565b5050565b600580546001600160a01b038381166001600160a01b0319831681179093556040519116919082907f8be0079c531659141344cd1fd0a4f28419497f9722a3daafe3b4186f6b6457e090600090a35050565b828054620000c2906200015a565b90600052602060002090601f016020900481019282620000e6576000855562000131565b82601f106200010157805160ff191683800117855562000131565b8280016001018555821562000131579182015b828111156200013157825182559160200191906001019062000114565b506200013f92915062000143565b5090565b5b808211156200013f576000815560010162000144565b600181811c908216806200016f57607f821691505b602082108114156200019157634e487b7160e01b600052602260045260246000fd5b50919050565b611b2a80620001a76000396000f3fe6080604052600436106100dc5760003560e01c8063715018a61161007f578063e985e9c511610059578063e985e9c51461026f578063f242432a146102b8578063f2fde38b146102d8578063faa5c564146102f857600080fd5b8063715018a6146102125780638da5cb5b14610227578063a22cb4651461024f57600080fd5b80631b2ef1ca116100bb5780631b2ef1ca146101715780632a55205a146101865780632eb2c2d6146101c55780634e1273f4146101e557600080fd5b8062fdd58e146100e157806301ffc9a7146101145780630e89341c14610144575b600080fd5b3480156100ed57600080fd5b506101016100fc366004611250565b610318565b6040519081526020015b60405180910390f35b34801561012057600080fd5b5061013461012f366004611290565b6103af565b604051901515815260200161010b565b34801561015057600080fd5b5061016461015f3660046112b4565b6103da565b60405161010b919061131a565b61018461017f36600461132d565b61046e565b005b34801561019257600080fd5b506101a66101a136600461132d565b6105d9565b604080516001600160a01b03909316835260208301919091520161010b565b3480156101d157600080fd5b506101846101e036600461149b565b610685565b3480156101f157600080fd5b50610205610200366004611545565b61071c565b60405161010b919061164b565b34801561021e57600080fd5b50610184610846565b34801561023357600080fd5b506005546040516001600160a01b03909116815260200161010b565b34801561025b57600080fd5b5061018461026a36600461165e565b61087c565b34801561027b57600080fd5b5061013461028a36600461169a565b6001600160a01b03918216600090815260016020908152604080832093909416825291909152205460ff1690565b3480156102c457600080fd5b506101846102d33660046116cd565b610887565b3480156102e457600080fd5b506101846102f3366004611732565b61090e565b34801561030457600080fd5b5061018461031336600461174d565b6109a9565b60006001600160a01b0383166103895760405162461bcd60e51b815260206004820152602b60248201527f455243313135353a2062616c616e636520717565727920666f7220746865207a60448201526a65726f206164647265737360a81b60648201526084015b60405180910390fd5b506000908152602081815260408083206001600160a01b03949094168352929052205490565b60006001600160e01b0319821663152a902d60e11b14806103d457506103d4826109f1565b92915050565b6060600280546103e990611779565b80601f016020809104026020016040519081016040528092919081815260200182805461041590611779565b80156104625780601f1061043757610100808354040283529160200191610462565b820191906000526020600020905b81548152906001019060200180831161044557829003601f168201915b50505050509050919050565b60018110156104d55760405162461bcd60e51b815260206004820152602d60248201527f596f75206861766520746f206d696e74206174206c656173742031206f72206d60448201526c6f726520617420612074696d6560981b6064820152608401610380565b6000828152600760209081526040808320546008909252909120546104fb9083906117ca565b11156105395760405162461bcd60e51b815260206004820152600d60248201526c131a5b5a5d081c995858da1959609a1b6044820152606401610380565b6000828152600660205260409020546105539082906117e2565b3410156105955760405162461bcd60e51b815260206004820152601060248201526f4e6f7420656e6f756768206d6f6e657960801b6044820152606401610380565b600082815260086020526040812080548392906105b39084906117ca565b925050819055506105d533838360405180602001604052806000815250610a16565b5050565b60008281526004602090815260408083208151808301909252546001600160a01b038116808352600160a01b9091046001600160601b031692820192909252829161064e5750604080518082019091526003546001600160a01b0381168252600160a01b90046001600160601b031660208201525b60208101516000906127109061066d906001600160601b0316876117e2565b6106779190611801565b915196919550909350505050565b6001600160a01b0385163314806106a157506106a1853361028a565b6107085760405162461bcd60e51b815260206004820152603260248201527f455243313135353a207472616e736665722063616c6c6572206973206e6f74206044820152711bdddb995c881b9bdc88185c1c1c9bdd995960721b6064820152608401610380565b6107158585858585610b2a565b5050505050565b606081518351146107815760405162461bcd60e51b815260206004820152602960248201527f455243313135353a206163636f756e747320616e6420696473206c656e677468604482015268040dad2e6dac2e8c6d60bb1b6064820152608401610380565b6000835167ffffffffffffffff81111561079d5761079d61134f565b6040519080825280602002602001820160405280156107c6578160200160208202803683370190505b50905060005b845181101561083e576108118582815181106107ea576107ea611823565b602002602001015185838151811061080457610804611823565b6020026020010151610318565b82828151811061082357610823611823565b602090810291909101015261083781611839565b90506107cc565b509392505050565b6005546001600160a01b031633146108705760405162461bcd60e51b815260040161038090611854565b61087a6000610d07565b565b6105d5338383610d59565b6001600160a01b0385163314806108a357506108a3853361028a565b6109015760405162461bcd60e51b815260206004820152602960248201527f455243313135353a2063616c6c6572206973206e6f74206f776e6572206e6f7260448201526808185c1c1c9bdd995960ba1b6064820152608401610380565b6107158585858585610e3a565b6005546001600160a01b031633146109385760405162461bcd60e51b815260040161038090611854565b6001600160a01b03811661099d5760405162461bcd60e51b815260206004820152602660248201527f4f776e61626c653a206e6577206f776e657220697320746865207a65726f206160448201526564647265737360d01b6064820152608401610380565b6109a681610d07565b50565b6005546001600160a01b031633146109d35760405162461bcd60e51b815260040161038090611854565b60009283526006602090815260408085209390935560079052912055565b60006001600160e01b0319821663152a902d60e11b14806103d457506103d482610f64565b6001600160a01b038416610a765760405162461bcd60e51b815260206004820152602160248201527f455243313135353a206d696e7420746f20746865207a65726f206164647265736044820152607360f81b6064820152608401610380565b336000610a8285610fb4565b90506000610a8f85610fb4565b90506000868152602081815260408083206001600160a01b038b16845290915281208054879290610ac19084906117ca565b909155505060408051878152602081018790526001600160a01b03808a1692600092918716917fc3d58168c5ae7397731d063d5bbf3d657854427343f4c083240f7aacaa2d0f62910160405180910390a4610b2183600089898989610fff565b50505050505050565b8151835114610b8c5760405162461bcd60e51b815260206004820152602860248201527f455243313135353a2069647320616e6420616d6f756e7473206c656e677468206044820152670dad2e6dac2e8c6d60c31b6064820152608401610380565b6001600160a01b038416610bb25760405162461bcd60e51b815260040161038090611889565b3360005b8451811015610c99576000858281518110610bd357610bd3611823565b602002602001015190506000858381518110610bf157610bf1611823565b602090810291909101810151600084815280835260408082206001600160a01b038e168352909352919091205490915081811015610c415760405162461bcd60e51b8152600401610380906118ce565b6000838152602081815260408083206001600160a01b038e8116855292528083208585039055908b16825281208054849290610c7e9084906117ca565b9250508190555050505080610c9290611839565b9050610bb6565b50846001600160a01b0316866001600160a01b0316826001600160a01b03167f4a39dc06d4c0dbc64b70af90fd698a233a518aa5d07e595d983b8c0526c8f7fb8787604051610ce9929190611918565b60405180910390a4610cff81878787878761116a565b505050505050565b600580546001600160a01b038381166001600160a01b0319831681179093556040519116919082907f8be0079c531659141344cd1fd0a4f28419497f9722a3daafe3b4186f6b6457e090600090a35050565b816001600160a01b0316836001600160a01b03161415610dcd5760405162461bcd60e51b815260206004820152602960248201527f455243313135353a2073657474696e6720617070726f76616c20737461747573604482015268103337b91039b2b63360b91b6064820152608401610380565b6001600160a01b03838116600081815260016020908152604080832094871680845294825291829020805460ff191686151590811790915591519182527f17307eab39ab6107e8899845ad3d59bd9653f200f220920489ca2b5937696c31910160405180910390a3505050565b6001600160a01b038416610e605760405162461bcd60e51b815260040161038090611889565b336000610e6c85610fb4565b90506000610e7985610fb4565b90506000868152602081815260408083206001600160a01b038c16845290915290205485811015610ebc5760405162461bcd60e51b8152600401610380906118ce565b6000878152602081815260408083206001600160a01b038d8116855292528083208985039055908a16825281208054889290610ef99084906117ca565b909155505060408051888152602081018890526001600160a01b03808b16928c821692918816917fc3d58168c5ae7397731d063d5bbf3d657854427343f4c083240f7aacaa2d0f62910160405180910390a4610f59848a8a8a8a8a610fff565b505050505050505050565b60006001600160e01b03198216636cdb3d1360e11b1480610f9557506001600160e01b031982166303a24d0760e21b145b806103d457506301ffc9a760e01b6001600160e01b03198316146103d4565b60408051600180825281830190925260609160009190602080830190803683370190505090508281600081518110610fee57610fee611823565b602090810291909101015292915050565b6001600160a01b0384163b15610cff5760405163f23a6e6160e01b81526001600160a01b0385169063f23a6e61906110439089908990889088908890600401611946565b602060405180830381600087803b15801561105d57600080fd5b505af192505050801561108d575060408051601f3d908101601f1916820190925261108a9181019061198b565b60015b61113a576110996119a8565b806308c379a014156110d357506110ae6119c4565b806110b957506110d5565b8060405162461bcd60e51b8152600401610380919061131a565b505b60405162461bcd60e51b815260206004820152603460248201527f455243313135353a207472616e7366657220746f206e6f6e20455243313135356044820152732932b1b2b4bb32b91034b6b83632b6b2b73a32b960611b6064820152608401610380565b6001600160e01b0319811663f23a6e6160e01b14610b215760405162461bcd60e51b815260040161038090611a4e565b6001600160a01b0384163b15610cff5760405163bc197c8160e01b81526001600160a01b0385169063bc197c81906111ae9089908990889088908890600401611a96565b602060405180830381600087803b1580156111c857600080fd5b505af19250505080156111f8575060408051601f3d908101601f191682019092526111f59181019061198b565b60015b611204576110996119a8565b6001600160e01b0319811663bc197c8160e01b14610b215760405162461bcd60e51b815260040161038090611a4e565b80356001600160a01b038116811461124b57600080fd5b919050565b6000806040838503121561126357600080fd5b61126c83611234565b946020939093013593505050565b6001600160e01b0319811681146109a657600080fd5b6000602082840312156112a257600080fd5b81356112ad8161127a565b9392505050565b6000602082840312156112c657600080fd5b5035919050565b6000815180845260005b818110156112f3576020818501810151868301820152016112d7565b81811115611305576000602083870101525b50601f01601f19169290920160200192915050565b6020815260006112ad60208301846112cd565b6000806040838503121561134057600080fd5b50508035926020909101359150565b634e487b7160e01b600052604160045260246000fd5b601f8201601f1916810167ffffffffffffffff8111828210171561138b5761138b61134f565b6040525050565b600067ffffffffffffffff8211156113ac576113ac61134f565b5060051b60200190565b600082601f8301126113c757600080fd5b813560206113d482611392565b6040516113e18282611365565b83815260059390931b850182019282810191508684111561140157600080fd5b8286015b8481101561141c5780358352918301918301611405565b509695505050505050565b600082601f83011261143857600080fd5b813567ffffffffffffffff8111156114525761145261134f565b604051611469601f8301601f191660200182611365565b81815284602083860101111561147e57600080fd5b816020850160208301376000918101602001919091529392505050565b600080600080600060a086880312156114b357600080fd5b6114bc86611234565b94506114ca60208701611234565b9350604086013567ffffffffffffffff808211156114e757600080fd5b6114f389838a016113b6565b9450606088013591508082111561150957600080fd5b61151589838a016113b6565b9350608088013591508082111561152b57600080fd5b5061153888828901611427565b9150509295509295909350565b6000806040838503121561155857600080fd5b823567ffffffffffffffff8082111561157057600080fd5b818501915085601f83011261158457600080fd5b8135602061159182611392565b60405161159e8282611365565b83815260059390931b85018201928281019150898411156115be57600080fd5b948201945b838610156115e3576115d486611234565b825294820194908201906115c3565b965050860135925050808211156115f957600080fd5b50611606858286016113b6565b9150509250929050565b600081518084526020808501945080840160005b8381101561164057815187529582019590820190600101611624565b509495945050505050565b6020815260006112ad6020830184611610565b6000806040838503121561167157600080fd5b61167a83611234565b91506020830135801515811461168f57600080fd5b809150509250929050565b600080604083850312156116ad57600080fd5b6116b683611234565b91506116c460208401611234565b90509250929050565b600080600080600060a086880312156116e557600080fd5b6116ee86611234565b94506116fc60208701611234565b93506040860135925060608601359150608086013567ffffffffffffffff81111561172657600080fd5b61153888828901611427565b60006020828403121561174457600080fd5b6112ad82611234565b60008060006060848603121561176257600080fd5b505081359360208301359350604090920135919050565b600181811c9082168061178d57607f821691505b602082108114156117ae57634e487b7160e01b600052602260045260246000fd5b50919050565b634e487b7160e01b600052601160045260246000fd5b600082198211156117dd576117dd6117b4565b500190565b60008160001904831182151516156117fc576117fc6117b4565b500290565b60008261181e57634e487b7160e01b600052601260045260246000fd5b500490565b634e487b7160e01b600052603260045260246000fd5b600060001982141561184d5761184d6117b4565b5060010190565b6020808252818101527f4f776e61626c653a2063616c6c6572206973206e6f7420746865206f776e6572604082015260600190565b60208082526025908201527f455243313135353a207472616e7366657220746f20746865207a65726f206164604082015264647265737360d81b606082015260800190565b6020808252602a908201527f455243313135353a20696e73756666696369656e742062616c616e636520666f60408201526939103a3930b739b332b960b11b606082015260800190565b60408152600061192b6040830185611610565b828103602084015261193d8185611610565b95945050505050565b6001600160a01b03868116825285166020820152604081018490526060810183905260a060808201819052600090611980908301846112cd565b979650505050505050565b60006020828403121561199d57600080fd5b81516112ad8161127a565b600060033d11156119c15760046000803e5060005160e01c5b90565b600060443d10156119d25790565b6040516003193d81016004833e81513d67ffffffffffffffff8160248401118184111715611a0257505050505090565b8285019150815181811115611a1a5750505050505090565b843d8701016020828501011115611a345750505050505090565b611a4360208286010187611365565b509095945050505050565b60208082526028908201527f455243313135353a204552433131353552656365697665722072656a656374656040820152676420746f6b656e7360c01b606082015260800190565b6001600160a01b0386811682528516602082015260a060408201819052600090611ac290830186611610565b8281036060840152611ad48186611610565b90508281036080840152611ae881856112cd565b9897505050505050505056fea2646970667358221220e76c5877e0d471f4000a39213a600b0de6f9baaf5b38edf38ba061ba77438fe364736f6c63430008090033697066733a2f2f516d51714d4637697a4e416155394359337156395a477334416b73763679776a78383236316b68677a5162526557",
  "devdoc": {
    "kind": "dev",
    "methods": {
      "balanceOf(address,uint256)": {
        "details": "See {IERC1155-balanceOf}. Requirements: - `account` cannot be the zero address."
      },
      "balanceOfBatch(address[],uint256[])": {
        "details": "See {IERC1155-balanceOfBatch}. Requirements: - `accounts` and `ids` must have the same length."
      },
      "isApprovedForAll(address,address)": {
        "details": "See {IERC1155-isApprovedForAll}."
      },
      "owner()": {
        "details": "Returns the address of the current owner."
      },
      "renounceOwnership()": {
        "details": "Leaves the contract without owner. It will not be possible to call `onlyOwner` functions anymore. Can only be called by the current owner. NOTE: Renouncing ownership will leave the contract without an owner, thereby removing any functionality that is only available to the owner."
      },
      "royaltyInfo(uint256,uint256)": {
        "details": "Returns how much royalty is owed and to whom, based on a sale price that may be denominated in any unit of exchange. The royalty amount is denominated and should be paid in that same unit of exchange."
      },
      "safeBatchTransferFrom(address,address,uint256[],uint256[],bytes)": {
        "details": "See {IERC1155-safeBatchTransferFrom}."
      },
      "safeTransferFrom(address,address,uint256,uint256,bytes)": {
        "details": "See {IERC1155-safeTransferFrom}."
      },
      "setApprovalForAll(address,bool)": {
        "details": "See {IERC1155-setApprovalForAll}."
      },
      "transferOwnership(address)": {
        "details": "Transfers ownership of the contract to a new account (`newOwner`). Can only be called by the current owner."
      },
      "uri(uint256)": {
        "details": "See {IERC1155MetadataURI-uri}. This implementation returns the same URI for *all* token types. It relies on the token type ID substitution mechanism https://eips.ethereum.org/EIPS/eip-1155#metadata[defined in the EIP]. Clients calling this function must replace the `\\{id\\}` substring with the actual token type ID."
      }
    },
    "version": 1
  },
  "userdoc": {
    "kind": "user",
    "methods": {},
    "version": 1
  },
  "storageLayout": {
    "storage": [
      {
        "astId": 189,
        "contract": "contracts/SampleERC1155.sol:SampleERC1155",
        "label": "_balances",
        "offset": 0,
        "slot": "0",
        "type": "t_mapping(t_uint256,t_mapping(t_address,t_uint256))"
      },
      {
        "astId": 195,
        "contract": "contracts/SampleERC1155.sol:SampleERC1155",
        "label": "_operatorApprovals",
        "offset": 0,
        "slot": "1",
        "type": "t_mapping(t_address,t_mapping(t_address,t_bool))"
      },
      {
        "astId": 197,
        "contract": "contracts/SampleERC1155.sol:SampleERC1155",
        "label": "_uri",
        "offset": 0,
        "slot": "2",
        "type": "t_string_storage"
      },
      {
        "astId": 2736,
        "contract": "contracts/SampleERC1155.sol:SampleERC1155",
        "label": "_defaultRoyaltyInfo",
        "offset": 0,
        "slot": "3",
        "type": "t_struct(RoyaltyInfo)2733_storage"
      },
      {
        "astId": 2741,
        "contract": "contracts/SampleERC1155.sol:SampleERC1155",
        "label": "_tokenRoyaltyInfo",
        "offset": 0,
        "slot": "4",
        "type": "t_mapping(t_uint256,t_struct(RoyaltyInfo)2733_storage)"
      },
      {
        "astId": 7,
        "contract": "contracts/SampleERC1155.sol:SampleERC1155",
        "label": "_owner",
        "offset": 0,
        "slot": "5",
        "type": "t_address"
      },
      {
        "astId": 4188,
        "contract": "contracts/SampleERC1155.sol:SampleERC1155",
        "label": "prices",
        "offset": 0,
        "slot": "6",
        "type": "t_mapping(t_uint256,t_uint256)"
      },
      {
        "astId": 4192,
        "contract": "contracts/SampleERC1155.sol:SampleERC1155",
        "label": "limitAmounts",
        "offset": 0,
        "slot": "7",
        "type": "t_mapping(t_uint256,t_uint256)"
      },
      {
        "astId": 4196,
        "contract": "contracts/SampleERC1155.sol:SampleERC1155",
        "label": "amountMinted",
        "offset": 0,
        "slot": "8",
        "type": "t_mapping(t_uint256,t_uint256)"
      }
    ],
    "types": {
      "t_address": {
        "encoding": "inplace",
        "label": "address",
        "numberOfBytes": "20"
      },
      "t_bool": {
        "encoding": "inplace",
        "label": "bool",
        "numberOfBytes": "1"
      },
      "t_mapping(t_address,t_bool)": {
        "encoding": "mapping",
        "key": "t_address",
        "label": "mapping(address => bool)",
        "numberOfBytes": "32",
        "value": "t_bool"
      },
      "t_mapping(t_address,t_mapping(t_address,t_bool))": {
        "encoding": "mapping",
        "key": "t_address",
        "label": "mapping(address => mapping(address => bool))",
        "numberOfBytes": "32",
        "value": "t_mapping(t_address,t_bool)"
      },
      "t_mapping(t_address,t_uint256)": {
        "encoding": "mapping",
        "key": "t_address",
        "label": "mapping(address => uint256)",
        "numberOfBytes": "32",
        "value": "t_uint256"
      },
      "t_mapping(t_uint256,t_mapping(t_address,t_uint256))": {
        "encoding": "mapping",
        "key": "t_uint256",
        "label": "mapping(uint256 => mapping(address => uint256))",
        "numberOfBytes": "32",
        "value": "t_mapping(t_address,t_uint256)"
      },
      "t_mapping(t_uint256,t_struct(RoyaltyInfo)2733_storage)": {
        "encoding": "mapping",
        "key": "t_uint256",
        "label": "mapping(uint256 => struct ERC2981.RoyaltyInfo)",
        "numberOfBytes": "32",
        "value": "t_struct(RoyaltyInfo)2733_storage"
      },
      "t_mapping(t_uint256,t_uint256)": {
        "encoding": "mapping",
        "key": "t_uint256",
        "label": "mapping(uint256 => uint256)",
        "numberOfBytes": "32",
        "value": "t_uint256"
      },
      "t_string_storage": {
        "encoding": "bytes",
        "label": "string",
        "numberOfBytes": "32"
      },
      "t_struct(RoyaltyInfo)2733_storage": {
        "encoding": "inplace",
        "label": "struct ERC2981.RoyaltyInfo",
        "members": [
          {
            "astId": 2730,
            "contract": "contracts/SampleERC1155.sol:SampleERC1155",
            "label": "receiver",
            "offset": 0,
            "slot": "0",
            "type": "t_address"
          },
          {
            "astId": 2732,
            "contract": "contracts/SampleERC1155.sol:SampleERC1155",
            "label": "royaltyFraction",
            "offset": 20,
            "slot": "0",
            "type": "t_uint96"
          }
        ],
        "numberOfBytes": "32"
      },
      "t_uint256": {
        "encoding": "inplace",
        "label": "uint256",
        "numberOfBytes": "32"
      },
      "t_uint96": {
        "encoding": "inplace",
        "label": "uint96",
        "numberOfBytes": "12"
      }
    }
  }
}