{
  "address": "0xAAbCB20241080a4BD5CDB8C052e73F29960c6F35",
  "abi": [
    {
      "inputs": [],
      "stateMutability": "nonpayable",
      "type": "constructor"
    },
    {
      "anonymous": false,
      "inputs": [
        {
          "indexed": true,
          "internalType": "address",
          "name": "account",
          "type": "address"
        },
        {
          "indexed": true,
          "internalType": "address",
          "name": "operator",
          "type": "address"
        },
        {
          "indexed": false,
          "internalType": "bool",
          "name": "approved",
          "type": "bool"
        }
      ],
      "name": "ApprovalForAll",
      "type": "event"
    },
    {
      "anonymous": false,
      "inputs": [
        {
          "indexed": true,
          "internalType": "address",
          "name": "previousOwner",
          "type": "address"
        },
        {
          "indexed": true,
          "internalType": "address",
          "name": "newOwner",
          "type": "address"
        }
      ],
      "name": "OwnershipTransferred",
      "type": "event"
    },
    {
      "anonymous": false,
      "inputs": [
        {
          "indexed": true,
          "internalType": "address",
          "name": "operator",
          "type": "address"
        },
        {
          "indexed": true,
          "internalType": "address",
          "name": "from",
          "type": "address"
        },
        {
          "indexed": true,
          "internalType": "address",
          "name": "to",
          "type": "address"
        },
        {
          "indexed": false,
          "internalType": "uint256[]",
          "name": "ids",
          "type": "uint256[]"
        },
        {
          "indexed": false,
          "internalType": "uint256[]",
          "name": "values",
          "type": "uint256[]"
        }
      ],
      "name": "TransferBatch",
      "type": "event"
    },
    {
      "anonymous": false,
      "inputs": [
        {
          "indexed": true,
          "internalType": "address",
          "name": "operator",
          "type": "address"
        },
        {
          "indexed": true,
          "internalType": "address",
          "name": "from",
          "type": "address"
        },
        {
          "indexed": true,
          "internalType": "address",
          "name": "to",
          "type": "address"
        },
        {
          "indexed": false,
          "internalType": "uint256",
          "name": "id",
          "type": "uint256"
        },
        {
          "indexed": false,
          "internalType": "uint256",
          "name": "value",
          "type": "uint256"
        }
      ],
      "name": "TransferSingle",
      "type": "event"
    },
    {
      "anonymous": false,
      "inputs": [
        {
          "indexed": false,
          "internalType": "string",
          "name": "value",
          "type": "string"
        },
        {
          "indexed": true,
          "internalType": "uint256",
          "name": "id",
          "type": "uint256"
        }
      ],
      "name": "URI",
      "type": "event"
    },
    {
      "inputs": [
        {
          "internalType": "address",
          "name": "account",
          "type": "address"
        },
        {
          "internalType": "uint256",
          "name": "id",
          "type": "uint256"
        }
      ],
      "name": "balanceOf",
      "outputs": [
        {
          "internalType": "uint256",
          "name": "",
          "type": "uint256"
        }
      ],
      "stateMutability": "view",
      "type": "function"
    },
    {
      "inputs": [
        {
          "internalType": "address[]",
          "name": "accounts",
          "type": "address[]"
        },
        {
          "internalType": "uint256[]",
          "name": "ids",
          "type": "uint256[]"
        }
      ],
      "name": "balanceOfBatch",
      "outputs": [
        {
          "internalType": "uint256[]",
          "name": "",
          "type": "uint256[]"
        }
      ],
      "stateMutability": "view",
      "type": "function"
    },
    {
      "inputs": [
        {
          "internalType": "address",
          "name": "account",
          "type": "address"
        },
        {
          "internalType": "address",
          "name": "operator",
          "type": "address"
        }
      ],
      "name": "isApprovedForAll",
      "outputs": [
        {
          "internalType": "bool",
          "name": "",
          "type": "bool"
        }
      ],
      "stateMutability": "view",
      "type": "function"
    },
    {
      "inputs": [
        {
          "internalType": "uint256",
          "name": "tokenId",
          "type": "uint256"
        },
        {
          "internalType": "uint256",
          "name": "amount",
          "type": "uint256"
        }
      ],
      "name": "mint",
      "outputs": [],
      "stateMutability": "payable",
      "type": "function"
    },
    {
      "inputs": [],
      "name": "name",
      "outputs": [
        {
          "internalType": "string",
          "name": "",
          "type": "string"
        }
      ],
      "stateMutability": "view",
      "type": "function"
    },
    {
      "inputs": [],
      "name": "owner",
      "outputs": [
        {
          "internalType": "address",
          "name": "",
          "type": "address"
        }
      ],
      "stateMutability": "view",
      "type": "function"
    },
    {
      "inputs": [],
      "name": "renounceOwnership",
      "outputs": [],
      "stateMutability": "nonpayable",
      "type": "function"
    },
    {
      "inputs": [
        {
          "internalType": "uint256",
          "name": "_tokenId",
          "type": "uint256"
        },
        {
          "internalType": "uint256",
          "name": "_salePrice",
          "type": "uint256"
        }
      ],
      "name": "royaltyInfo",
      "outputs": [
        {
          "internalType": "address",
          "name": "",
          "type": "address"
        },
        {
          "internalType": "uint256",
          "name": "",
          "type": "uint256"
        }
      ],
      "stateMutability": "view",
      "type": "function"
    },
    {
      "inputs": [
        {
          "internalType": "address",
          "name": "from",
          "type": "address"
        },
        {
          "internalType": "address",
          "name": "to",
          "type": "address"
        },
        {
          "internalType": "uint256[]",
          "name": "ids",
          "type": "uint256[]"
        },
        {
          "internalType": "uint256[]",
          "name": "amounts",
          "type": "uint256[]"
        },
        {
          "internalType": "bytes",
          "name": "data",
          "type": "bytes"
        }
      ],
      "name": "safeBatchTransferFrom",
      "outputs": [],
      "stateMutability": "nonpayable",
      "type": "function"
    },
    {
      "inputs": [
        {
          "internalType": "address",
          "name": "from",
          "type": "address"
        },
        {
          "internalType": "address",
          "name": "to",
          "type": "address"
        },
        {
          "internalType": "uint256",
          "name": "id",
          "type": "uint256"
        },
        {
          "internalType": "uint256",
          "name": "amount",
          "type": "uint256"
        },
        {
          "internalType": "bytes",
          "name": "data",
          "type": "bytes"
        }
      ],
      "name": "safeTransferFrom",
      "outputs": [],
      "stateMutability": "nonpayable",
      "type": "function"
    },
    {
      "inputs": [
        {
          "internalType": "address",
          "name": "operator",
          "type": "address"
        },
        {
          "internalType": "bool",
          "name": "approved",
          "type": "bool"
        }
      ],
      "name": "setApprovalForAll",
      "outputs": [],
      "stateMutability": "nonpayable",
      "type": "function"
    },
    {
      "inputs": [
        {
          "internalType": "uint256",
          "name": "tokenId",
          "type": "uint256"
        },
        {
          "internalType": "uint256",
          "name": "price",
          "type": "uint256"
        },
        {
          "internalType": "uint256",
          "name": "limitAmount",
          "type": "uint256"
        }
      ],
      "name": "setItem",
      "outputs": [],
      "stateMutability": "nonpayable",
      "type": "function"
    },
    {
      "inputs": [
        {
          "internalType": "string",
          "name": "uri",
          "type": "string"
        }
      ],
      "name": "setURI",
      "outputs": [],
      "stateMutability": "nonpayable",
      "type": "function"
    },
    {
      "inputs": [
        {
          "internalType": "bytes4",
          "name": "interfaceId",
          "type": "bytes4"
        }
      ],
      "name": "supportsInterface",
      "outputs": [
        {
          "internalType": "bool",
          "name": "",
          "type": "bool"
        }
      ],
      "stateMutability": "view",
      "type": "function"
    },
    {
      "inputs": [],
      "name": "symbol",
      "outputs": [
        {
          "internalType": "string",
          "name": "",
          "type": "string"
        }
      ],
      "stateMutability": "view",
      "type": "function"
    },
    {
      "inputs": [
        {
          "internalType": "address",
          "name": "newOwner",
          "type": "address"
        }
      ],
      "name": "transferOwnership",
      "outputs": [],
      "stateMutability": "nonpayable",
      "type": "function"
    },
    {
      "inputs": [
        {
          "internalType": "uint256",
          "name": "",
          "type": "uint256"
        }
      ],
      "name": "uri",
      "outputs": [
        {
          "internalType": "string",
          "name": "",
          "type": "string"
        }
      ],
      "stateMutability": "view",
      "type": "function"
    }
  ],
  "transactionHash": "0x11392cc4b47c12b9afbd0399e0338a5094db615c9178fdae5363a46ce1a8f5fa",
  "args": [],
  "numDeployments": 5,
  "solcInputHash": "eff5e2ce3a30620dfc523b82a1fb20be",
  "bytecode": "0x60806040523480156200001157600080fd5b506040805160208101909152600081526200002c81620000a5565b506200003833620000be565b60408051808201909152600d8082526c53616d706c654552433131353560981b60209092019182526200006e9160079162000110565b5060408051808201909152600880825267534552433131353560c01b60209092019182526200009e918162000110565b50620001f3565b8051620000ba90600290602084019062000110565b5050565b600580546001600160a01b038381166001600160a01b0319831681179093556040519116919082907f8be0079c531659141344cd1fd0a4f28419497f9722a3daafe3b4186f6b6457e090600090a35050565b8280546200011e90620001b6565b90600052602060002090601f0160209004810192826200014257600085556200018d565b82601f106200015d57805160ff19168380011785556200018d565b828001600101855582156200018d579182015b828111156200018d57825182559160200191906001019062000170565b506200019b9291506200019f565b5090565b5b808211156200019b5760008155600101620001a0565b600181811c90821680620001cb57607f821691505b60208210811415620001ed57634e487b7160e01b600052602260045260246000fd5b50919050565b611e2a80620002036000396000f3fe6080604052600436106100fd5760003560e01c80634e1273f411610095578063a22cb46511610064578063a22cb465146102ba578063e985e9c5146102da578063ee33646c14610323578063f242432a14610343578063f2fde38b1461036357600080fd5b80634e1273f41461023b578063715018a6146102685780638da5cb5b1461027d57806395d89b41146102a557600080fd5b80630e89341c116100d15780630e89341c146101a95780631b2ef1ca146101c95780632a55205a146101dc5780632eb2c2d61461021b57600080fd5b8062fdd58e1461010257806301ffc9a71461013557806302fe53051461016557806306fdde0314610187575b600080fd5b34801561010e57600080fd5b5061012261011d3660046114f5565b610383565b6040519081526020015b60405180910390f35b34801561014157600080fd5b50610155610150366004611535565b61041a565b604051901515815260200161012c565b34801561017157600080fd5b506101856101803660046115fa565b610445565b005b34801561019357600080fd5b5061019c61047b565b60405161012c9190611698565b3480156101b557600080fd5b5061019c6101c43660046116ab565b610509565b6101856101d73660046116c4565b61059d565b3480156101e857600080fd5b506101fc6101f73660046116c4565b610759565b604080516001600160a01b03909316835260208301919091520161012c565b34801561022757600080fd5b5061018561023636600461179b565b610805565b34801561024757600080fd5b5061025b610256366004611845565b61089c565b60405161012c919061194b565b34801561027457600080fd5b506101856109c6565b34801561028957600080fd5b506005546040516001600160a01b03909116815260200161012c565b3480156102b157600080fd5b5061019c6109fc565b3480156102c657600080fd5b506101856102d536600461195e565b610a09565b3480156102e657600080fd5b506101556102f536600461199a565b6001600160a01b03918216600090815260016020908152604080832093909416825291909152205460ff1690565b34801561032f57600080fd5b5061018561033e3660046119cd565b610a18565b34801561034f57600080fd5b5061018561035e3660046119f9565b610acb565b34801561036f57600080fd5b5061018561037e366004611a5e565b610b52565b60006001600160a01b0383166103f45760405162461bcd60e51b815260206004820152602b60248201527f455243313135353a2062616c616e636520717565727920666f7220746865207a60448201526a65726f206164647265737360a81b60648201526084015b60405180910390fd5b506000908152602081815260408083206001600160a01b03949094168352929052205490565b60006001600160e01b0319821663152a902d60e11b148061043f575061043f82610bea565b92915050565b6005546001600160a01b0316331461046f5760405162461bcd60e51b81526004016103eb90611a79565b61047881610c0f565b50565b6007805461048890611aae565b80601f01602080910402602001604051908101604052809291908181526020018280546104b490611aae565b80156105015780601f106104d657610100808354040283529160200191610501565b820191906000526020600020905b8154815290600101906020018083116104e457829003601f168201915b505050505081565b60606002805461051890611aae565b80601f016020809104026020016040519081016040528092919081815260200182805461054490611aae565b80156105915780601f1061056657610100808354040283529160200191610591565b820191906000526020600020905b81548152906001019060200180831161057457829003601f168201915b50505050509050919050565b60018110156106045760405162461bcd60e51b815260206004820152602d60248201527f596f75206861766520746f206d696e74206174206c656173742031206f72206d60448201526c6f726520617420612074696d6560981b60648201526084016103eb565b6000828152600660205260409020600101546106525760405162461bcd60e51b815260206004820152600d60248201526c125b9d985b1a59081a5b9c1d5d609a1b60448201526064016103eb565b600082815260066020908152604091829020825160608101845281548152600182015492810183905260029091015492810183905291610693908490611aff565b11156106d15760405162461bcd60e51b815260206004820152600d60248201526c131a5b5a5d081c995858da1959609a1b60448201526064016103eb565b80516106de908390611b17565b3410156107205760405162461bcd60e51b815260206004820152601060248201526f4e6f7420656e6f756768206d6f6e657960801b60448201526064016103eb565b81816040018181516107329190611aff565b9150818152505061075433848460405180602001604052806000815250610c22565b505050565b60008281526004602090815260408083208151808301909252546001600160a01b038116808352600160a01b9091046001600160601b03169282019290925282916107ce5750604080518082019091526003546001600160a01b0381168252600160a01b90046001600160601b031660208201525b6020810151600090612710906107ed906001600160601b031687611b17565b6107f79190611b36565b915196919550909350505050565b6001600160a01b038516331480610821575061082185336102f5565b6108885760405162461bcd60e51b815260206004820152603260248201527f455243313135353a207472616e736665722063616c6c6572206973206e6f74206044820152711bdddb995c881b9bdc88185c1c1c9bdd995960721b60648201526084016103eb565b6108958585858585610d36565b5050505050565b606081518351146109015760405162461bcd60e51b815260206004820152602960248201527f455243313135353a206163636f756e747320616e6420696473206c656e677468604482015268040dad2e6dac2e8c6d60bb1b60648201526084016103eb565b6000835167ffffffffffffffff81111561091d5761091d611559565b604051908082528060200260200182016040528015610946578160200160208202803683370190505b50905060005b84518110156109be5761099185828151811061096a5761096a611b58565b602002602001015185838151811061098457610984611b58565b6020026020010151610383565b8282815181106109a3576109a3611b58565b60209081029190910101526109b781611b6e565b905061094c565b509392505050565b6005546001600160a01b031633146109f05760405162461bcd60e51b81526004016103eb90611a79565b6109fa6000610f13565b565b6008805461048890611aae565b610a14338383610f65565b5050565b6005546001600160a01b03163314610a425760405162461bcd60e51b81526004016103eb90611a79565b60008381526006602052604090206001015415610a915760405162461bcd60e51b815260206004820152600d60248201526c125b9d985b1a59081a5b9c1d5d609a1b60448201526064016103eb565b6040805160608101825292835260208084019283526000848301818152958152600690915220915182555160018201559051600290910155565b6001600160a01b038516331480610ae75750610ae785336102f5565b610b455760405162461bcd60e51b815260206004820152602960248201527f455243313135353a2063616c6c6572206973206e6f74206f776e6572206e6f7260448201526808185c1c1c9bdd995960ba1b60648201526084016103eb565b6108958585858585611046565b6005546001600160a01b03163314610b7c5760405162461bcd60e51b81526004016103eb90611a79565b6001600160a01b038116610be15760405162461bcd60e51b815260206004820152602660248201527f4f776e61626c653a206e6577206f776e657220697320746865207a65726f206160448201526564647265737360d01b60648201526084016103eb565b61047881610f13565b60006001600160e01b0319821663152a902d60e11b148061043f575061043f82611170565b8051610a14906002906020840190611440565b6001600160a01b038416610c825760405162461bcd60e51b815260206004820152602160248201527f455243313135353a206d696e7420746f20746865207a65726f206164647265736044820152607360f81b60648201526084016103eb565b336000610c8e856111c0565b90506000610c9b856111c0565b90506000868152602081815260408083206001600160a01b038b16845290915281208054879290610ccd908490611aff565b909155505060408051878152602081018790526001600160a01b03808a1692600092918716917fc3d58168c5ae7397731d063d5bbf3d657854427343f4c083240f7aacaa2d0f62910160405180910390a4610d2d8360008989898961120b565b50505050505050565b8151835114610d985760405162461bcd60e51b815260206004820152602860248201527f455243313135353a2069647320616e6420616d6f756e7473206c656e677468206044820152670dad2e6dac2e8c6d60c31b60648201526084016103eb565b6001600160a01b038416610dbe5760405162461bcd60e51b81526004016103eb90611b89565b3360005b8451811015610ea5576000858281518110610ddf57610ddf611b58565b602002602001015190506000858381518110610dfd57610dfd611b58565b602090810291909101810151600084815280835260408082206001600160a01b038e168352909352919091205490915081811015610e4d5760405162461bcd60e51b81526004016103eb90611bce565b6000838152602081815260408083206001600160a01b038e8116855292528083208585039055908b16825281208054849290610e8a908490611aff565b9250508190555050505080610e9e90611b6e565b9050610dc2565b50846001600160a01b0316866001600160a01b0316826001600160a01b03167f4a39dc06d4c0dbc64b70af90fd698a233a518aa5d07e595d983b8c0526c8f7fb8787604051610ef5929190611c18565b60405180910390a4610f0b818787878787611376565b505050505050565b600580546001600160a01b038381166001600160a01b0319831681179093556040519116919082907f8be0079c531659141344cd1fd0a4f28419497f9722a3daafe3b4186f6b6457e090600090a35050565b816001600160a01b0316836001600160a01b03161415610fd95760405162461bcd60e51b815260206004820152602960248201527f455243313135353a2073657474696e6720617070726f76616c20737461747573604482015268103337b91039b2b63360b91b60648201526084016103eb565b6001600160a01b03838116600081815260016020908152604080832094871680845294825291829020805460ff191686151590811790915591519182527f17307eab39ab6107e8899845ad3d59bd9653f200f220920489ca2b5937696c31910160405180910390a3505050565b6001600160a01b03841661106c5760405162461bcd60e51b81526004016103eb90611b89565b336000611078856111c0565b90506000611085856111c0565b90506000868152602081815260408083206001600160a01b038c168452909152902054858110156110c85760405162461bcd60e51b81526004016103eb90611bce565b6000878152602081815260408083206001600160a01b038d8116855292528083208985039055908a16825281208054889290611105908490611aff565b909155505060408051888152602081018890526001600160a01b03808b16928c821692918816917fc3d58168c5ae7397731d063d5bbf3d657854427343f4c083240f7aacaa2d0f62910160405180910390a4611165848a8a8a8a8a61120b565b505050505050505050565b60006001600160e01b03198216636cdb3d1360e11b14806111a157506001600160e01b031982166303a24d0760e21b145b8061043f57506301ffc9a760e01b6001600160e01b031983161461043f565b604080516001808252818301909252606091600091906020808301908036833701905050905082816000815181106111fa576111fa611b58565b602090810291909101015292915050565b6001600160a01b0384163b15610f0b5760405163f23a6e6160e01b81526001600160a01b0385169063f23a6e619061124f9089908990889088908890600401611c46565b602060405180830381600087803b15801561126957600080fd5b505af1925050508015611299575060408051601f3d908101601f1916820190925261129691810190611c8b565b60015b611346576112a5611ca8565b806308c379a014156112df57506112ba611cc4565b806112c557506112e1565b8060405162461bcd60e51b81526004016103eb9190611698565b505b60405162461bcd60e51b815260206004820152603460248201527f455243313135353a207472616e7366657220746f206e6f6e20455243313135356044820152732932b1b2b4bb32b91034b6b83632b6b2b73a32b960611b60648201526084016103eb565b6001600160e01b0319811663f23a6e6160e01b14610d2d5760405162461bcd60e51b81526004016103eb90611d4e565b6001600160a01b0384163b15610f0b5760405163bc197c8160e01b81526001600160a01b0385169063bc197c81906113ba9089908990889088908890600401611d96565b602060405180830381600087803b1580156113d457600080fd5b505af1925050508015611404575060408051601f3d908101601f1916820190925261140191810190611c8b565b60015b611410576112a5611ca8565b6001600160e01b0319811663bc197c8160e01b14610d2d5760405162461bcd60e51b81526004016103eb90611d4e565b82805461144c90611aae565b90600052602060002090601f01602090048101928261146e57600085556114b4565b82601f1061148757805160ff19168380011785556114b4565b828001600101855582156114b4579182015b828111156114b4578251825591602001919060010190611499565b506114c09291506114c4565b5090565b5b808211156114c057600081556001016114c5565b80356001600160a01b03811681146114f057600080fd5b919050565b6000806040838503121561150857600080fd5b611511836114d9565b946020939093013593505050565b6001600160e01b03198116811461047857600080fd5b60006020828403121561154757600080fd5b81356115528161151f565b9392505050565b634e487b7160e01b600052604160045260246000fd5b601f8201601f1916810167ffffffffffffffff8111828210171561159557611595611559565b6040525050565b600067ffffffffffffffff8311156115b6576115b6611559565b6040516115cd601f8501601f19166020018261156f565b8091508381528484840111156115e257600080fd5b83836020830137600060208583010152509392505050565b60006020828403121561160c57600080fd5b813567ffffffffffffffff81111561162357600080fd5b8201601f8101841361163457600080fd5b6116438482356020840161159c565b949350505050565b6000815180845260005b8181101561167157602081850181015186830182015201611655565b81811115611683576000602083870101525b50601f01601f19169290920160200192915050565b602081526000611552602083018461164b565b6000602082840312156116bd57600080fd5b5035919050565b600080604083850312156116d757600080fd5b50508035926020909101359150565b600067ffffffffffffffff82111561170057611700611559565b5060051b60200190565b600082601f83011261171b57600080fd5b81356020611728826116e6565b604051611735828261156f565b83815260059390931b850182019282810191508684111561175557600080fd5b8286015b848110156117705780358352918301918301611759565b509695505050505050565b600082601f83011261178c57600080fd5b6115528383356020850161159c565b600080600080600060a086880312156117b357600080fd5b6117bc866114d9565b94506117ca602087016114d9565b9350604086013567ffffffffffffffff808211156117e757600080fd5b6117f389838a0161170a565b9450606088013591508082111561180957600080fd5b61181589838a0161170a565b9350608088013591508082111561182b57600080fd5b506118388882890161177b565b9150509295509295909350565b6000806040838503121561185857600080fd5b823567ffffffffffffffff8082111561187057600080fd5b818501915085601f83011261188457600080fd5b81356020611891826116e6565b60405161189e828261156f565b83815260059390931b85018201928281019150898411156118be57600080fd5b948201945b838610156118e3576118d4866114d9565b825294820194908201906118c3565b965050860135925050808211156118f957600080fd5b506119068582860161170a565b9150509250929050565b600081518084526020808501945080840160005b8381101561194057815187529582019590820190600101611924565b509495945050505050565b6020815260006115526020830184611910565b6000806040838503121561197157600080fd5b61197a836114d9565b91506020830135801515811461198f57600080fd5b809150509250929050565b600080604083850312156119ad57600080fd5b6119b6836114d9565b91506119c4602084016114d9565b90509250929050565b6000806000606084860312156119e257600080fd5b505081359360208301359350604090920135919050565b600080600080600060a08688031215611a1157600080fd5b611a1a866114d9565b9450611a28602087016114d9565b93506040860135925060608601359150608086013567ffffffffffffffff811115611a5257600080fd5b6118388882890161177b565b600060208284031215611a7057600080fd5b611552826114d9565b6020808252818101527f4f776e61626c653a2063616c6c6572206973206e6f7420746865206f776e6572604082015260600190565b600181811c90821680611ac257607f821691505b60208210811415611ae357634e487b7160e01b600052602260045260246000fd5b50919050565b634e487b7160e01b600052601160045260246000fd5b60008219821115611b1257611b12611ae9565b500190565b6000816000190483118215151615611b3157611b31611ae9565b500290565b600082611b5357634e487b7160e01b600052601260045260246000fd5b500490565b634e487b7160e01b600052603260045260246000fd5b6000600019821415611b8257611b82611ae9565b5060010190565b60208082526025908201527f455243313135353a207472616e7366657220746f20746865207a65726f206164604082015264647265737360d81b606082015260800190565b6020808252602a908201527f455243313135353a20696e73756666696369656e742062616c616e636520666f60408201526939103a3930b739b332b960b11b606082015260800190565b604081526000611c2b6040830185611910565b8281036020840152611c3d8185611910565b95945050505050565b6001600160a01b03868116825285166020820152604081018490526060810183905260a060808201819052600090611c809083018461164b565b979650505050505050565b600060208284031215611c9d57600080fd5b81516115528161151f565b600060033d1115611cc15760046000803e5060005160e01c5b90565b600060443d1015611cd25790565b6040516003193d81016004833e81513d67ffffffffffffffff8160248401118184111715611d0257505050505090565b8285019150815181811115611d1a5750505050505090565b843d8701016020828501011115611d345750505050505090565b611d436020828601018761156f565b509095945050505050565b60208082526028908201527f455243313135353a204552433131353552656365697665722072656a656374656040820152676420746f6b656e7360c01b606082015260800190565b6001600160a01b0386811682528516602082015260a060408201819052600090611dc290830186611910565b8281036060840152611dd48186611910565b90508281036080840152611de8818561164b565b9897505050505050505056fea26469706673582212202123917dca1e890484608d7496a6ffe0d3236f1d635f81ed9cb1e7c9858db9b864736f6c63430008090033",
  "devdoc": {
    "kind": "dev",
    "methods": {
      "balanceOf(address,uint256)": {
        "details": "See {IERC1155-balanceOf}. Requirements: - `account` cannot be the zero address."
      },
      "balanceOfBatch(address[],uint256[])": {
        "details": "See {IERC1155-balanceOfBatch}. Requirements: - `accounts` and `ids` must have the same length."
      },
      "isApprovedForAll(address,address)": {
        "details": "See {IERC1155-isApprovedForAll}."
      },
      "owner()": {
        "details": "Returns the address of the current owner."
      },
      "renounceOwnership()": {
        "details": "Leaves the contract without owner. It will not be possible to call `onlyOwner` functions anymore. Can only be called by the current owner. NOTE: Renouncing ownership will leave the contract without an owner, thereby removing any functionality that is only available to the owner."
      },
      "royaltyInfo(uint256,uint256)": {
        "details": "Returns how much royalty is owed and to whom, based on a sale price that may be denominated in any unit of exchange. The royalty amount is denominated and should be paid in that same unit of exchange."
      },
      "safeBatchTransferFrom(address,address,uint256[],uint256[],bytes)": {
        "details": "See {IERC1155-safeBatchTransferFrom}."
      },
      "safeTransferFrom(address,address,uint256,uint256,bytes)": {
        "details": "See {IERC1155-safeTransferFrom}."
      },
      "setApprovalForAll(address,bool)": {
        "details": "See {IERC1155-setApprovalForAll}."
      },
      "transferOwnership(address)": {
        "details": "Transfers ownership of the contract to a new account (`newOwner`). Can only be called by the current owner."
      },
      "uri(uint256)": {
        "details": "See {IERC1155MetadataURI-uri}. This implementation returns the same URI for *all* token types. It relies on the token type ID substitution mechanism https://eips.ethereum.org/EIPS/eip-1155#metadata[defined in the EIP]. Clients calling this function must replace the `\\{id\\}` substring with the actual token type ID."
      }
    },
    "version": 1
  },
  "userdoc": {
    "kind": "user",
    "methods": {},
    "version": 1
  },
  "storageLayout": {
    "storage": [
      {
        "astId": 189,
        "contract": "contracts/SampleERC1155.sol:SampleERC1155",
        "label": "_balances",
        "offset": 0,
        "slot": "0",
        "type": "t_mapping(t_uint256,t_mapping(t_address,t_uint256))"
      },
      {
        "astId": 195,
        "contract": "contracts/SampleERC1155.sol:SampleERC1155",
        "label": "_operatorApprovals",
        "offset": 0,
        "slot": "1",
        "type": "t_mapping(t_address,t_mapping(t_address,t_bool))"
      },
      {
        "astId": 197,
        "contract": "contracts/SampleERC1155.sol:SampleERC1155",
        "label": "_uri",
        "offset": 0,
        "slot": "2",
        "type": "t_string_storage"
      },
      {
        "astId": 2608,
        "contract": "contracts/SampleERC1155.sol:SampleERC1155",
        "label": "_defaultRoyaltyInfo",
        "offset": 0,
        "slot": "3",
        "type": "t_struct(RoyaltyInfo)2605_storage"
      },
      {
        "astId": 2613,
        "contract": "contracts/SampleERC1155.sol:SampleERC1155",
        "label": "_tokenRoyaltyInfo",
        "offset": 0,
        "slot": "4",
        "type": "t_mapping(t_uint256,t_struct(RoyaltyInfo)2605_storage)"
      },
      {
        "astId": 7,
        "contract": "contracts/SampleERC1155.sol:SampleERC1155",
        "label": "_owner",
        "offset": 0,
        "slot": "5",
        "type": "t_address"
      },
      {
        "astId": 4006,
        "contract": "contracts/SampleERC1155.sol:SampleERC1155",
        "label": "items",
        "offset": 0,
        "slot": "6",
        "type": "t_mapping(t_uint256,t_struct(Item)4017_storage)"
      },
      {
        "astId": 4008,
        "contract": "contracts/SampleERC1155.sol:SampleERC1155",
        "label": "name",
        "offset": 0,
        "slot": "7",
        "type": "t_string_storage"
      },
      {
        "astId": 4010,
        "contract": "contracts/SampleERC1155.sol:SampleERC1155",
        "label": "symbol",
        "offset": 0,
        "slot": "8",
        "type": "t_string_storage"
      }
    ],
    "types": {
      "t_address": {
        "encoding": "inplace",
        "label": "address",
        "numberOfBytes": "20"
      },
      "t_bool": {
        "encoding": "inplace",
        "label": "bool",
        "numberOfBytes": "1"
      },
      "t_mapping(t_address,t_bool)": {
        "encoding": "mapping",
        "key": "t_address",
        "label": "mapping(address => bool)",
        "numberOfBytes": "32",
        "value": "t_bool"
      },
      "t_mapping(t_address,t_mapping(t_address,t_bool))": {
        "encoding": "mapping",
        "key": "t_address",
        "label": "mapping(address => mapping(address => bool))",
        "numberOfBytes": "32",
        "value": "t_mapping(t_address,t_bool)"
      },
      "t_mapping(t_address,t_uint256)": {
        "encoding": "mapping",
        "key": "t_address",
        "label": "mapping(address => uint256)",
        "numberOfBytes": "32",
        "value": "t_uint256"
      },
      "t_mapping(t_uint256,t_mapping(t_address,t_uint256))": {
        "encoding": "mapping",
        "key": "t_uint256",
        "label": "mapping(uint256 => mapping(address => uint256))",
        "numberOfBytes": "32",
        "value": "t_mapping(t_address,t_uint256)"
      },
      "t_mapping(t_uint256,t_struct(Item)4017_storage)": {
        "encoding": "mapping",
        "key": "t_uint256",
        "label": "mapping(uint256 => struct SampleERC1155.Item)",
        "numberOfBytes": "32",
        "value": "t_struct(Item)4017_storage"
      },
      "t_mapping(t_uint256,t_struct(RoyaltyInfo)2605_storage)": {
        "encoding": "mapping",
        "key": "t_uint256",
        "label": "mapping(uint256 => struct ERC2981.RoyaltyInfo)",
        "numberOfBytes": "32",
        "value": "t_struct(RoyaltyInfo)2605_storage"
      },
      "t_string_storage": {
        "encoding": "bytes",
        "label": "string",
        "numberOfBytes": "32"
      },
      "t_struct(Item)4017_storage": {
        "encoding": "inplace",
        "label": "struct SampleERC1155.Item",
        "members": [
          {
            "astId": 4012,
            "contract": "contracts/SampleERC1155.sol:SampleERC1155",
            "label": "price",
            "offset": 0,
            "slot": "0",
            "type": "t_uint256"
          },
          {
            "astId": 4014,
            "contract": "contracts/SampleERC1155.sol:SampleERC1155",
            "label": "limitAmount",
            "offset": 0,
            "slot": "1",
            "type": "t_uint256"
          },
          {
            "astId": 4016,
            "contract": "contracts/SampleERC1155.sol:SampleERC1155",
            "label": "mintedAmount",
            "offset": 0,
            "slot": "2",
            "type": "t_uint256"
          }
        ],
        "numberOfBytes": "96"
      },
      "t_struct(RoyaltyInfo)2605_storage": {
        "encoding": "inplace",
        "label": "struct ERC2981.RoyaltyInfo",
        "members": [
          {
            "astId": 2602,
            "contract": "contracts/SampleERC1155.sol:SampleERC1155",
            "label": "receiver",
            "offset": 0,
            "slot": "0",
            "type": "t_address"
          },
          {
            "astId": 2604,
            "contract": "contracts/SampleERC1155.sol:SampleERC1155",
            "label": "royaltyFraction",
            "offset": 20,
            "slot": "0",
            "type": "t_uint96"
          }
        ],
        "numberOfBytes": "32"
      },
      "t_uint256": {
        "encoding": "inplace",
        "label": "uint256",
        "numberOfBytes": "32"
      },
      "t_uint96": {
        "encoding": "inplace",
        "label": "uint96",
        "numberOfBytes": "12"
      }
    }
  }
}