{
  "address": "0x44F98e99FB49dEf7E5C4e8e2f6466F3FCa934bB6",
  "abi": [
    {
      "anonymous": false,
      "inputs": [
        {
          "indexed": true,
          "internalType": "address",
          "name": "account",
          "type": "address"
        },
        {
          "indexed": true,
          "internalType": "address",
          "name": "operator",
          "type": "address"
        },
        {
          "indexed": false,
          "internalType": "bool",
          "name": "approved",
          "type": "bool"
        }
      ],
      "name": "ApprovalForAll",
      "type": "event"
    },
    {
      "anonymous": false,
      "inputs": [
        {
          "indexed": false,
          "internalType": "uint8",
          "name": "version",
          "type": "uint8"
        }
      ],
      "name": "Initialized",
      "type": "event"
    },
    {
      "anonymous": false,
      "inputs": [
        {
          "indexed": true,
          "internalType": "address",
          "name": "previousOwner",
          "type": "address"
        },
        {
          "indexed": true,
          "internalType": "address",
          "name": "newOwner",
          "type": "address"
        }
      ],
      "name": "OwnershipTransferred",
      "type": "event"
    },
    {
      "anonymous": false,
      "inputs": [
        {
          "indexed": true,
          "internalType": "address",
          "name": "operator",
          "type": "address"
        },
        {
          "indexed": true,
          "internalType": "address",
          "name": "from",
          "type": "address"
        },
        {
          "indexed": true,
          "internalType": "address",
          "name": "to",
          "type": "address"
        },
        {
          "indexed": false,
          "internalType": "uint256[]",
          "name": "ids",
          "type": "uint256[]"
        },
        {
          "indexed": false,
          "internalType": "uint256[]",
          "name": "values",
          "type": "uint256[]"
        }
      ],
      "name": "TransferBatch",
      "type": "event"
    },
    {
      "anonymous": false,
      "inputs": [
        {
          "indexed": true,
          "internalType": "address",
          "name": "operator",
          "type": "address"
        },
        {
          "indexed": true,
          "internalType": "address",
          "name": "from",
          "type": "address"
        },
        {
          "indexed": true,
          "internalType": "address",
          "name": "to",
          "type": "address"
        },
        {
          "indexed": false,
          "internalType": "uint256",
          "name": "id",
          "type": "uint256"
        },
        {
          "indexed": false,
          "internalType": "uint256",
          "name": "value",
          "type": "uint256"
        }
      ],
      "name": "TransferSingle",
      "type": "event"
    },
    {
      "anonymous": false,
      "inputs": [
        {
          "indexed": false,
          "internalType": "string",
          "name": "value",
          "type": "string"
        },
        {
          "indexed": true,
          "internalType": "uint256",
          "name": "id",
          "type": "uint256"
        }
      ],
      "name": "URI",
      "type": "event"
    },
    {
      "inputs": [
        {
          "internalType": "address",
          "name": "account",
          "type": "address"
        },
        {
          "internalType": "uint256",
          "name": "id",
          "type": "uint256"
        }
      ],
      "name": "balanceOf",
      "outputs": [
        {
          "internalType": "uint256",
          "name": "",
          "type": "uint256"
        }
      ],
      "stateMutability": "view",
      "type": "function"
    },
    {
      "inputs": [
        {
          "internalType": "address[]",
          "name": "accounts",
          "type": "address[]"
        },
        {
          "internalType": "uint256[]",
          "name": "ids",
          "type": "uint256[]"
        }
      ],
      "name": "balanceOfBatch",
      "outputs": [
        {
          "internalType": "uint256[]",
          "name": "",
          "type": "uint256[]"
        }
      ],
      "stateMutability": "view",
      "type": "function"
    },
    {
      "inputs": [],
      "name": "initialize",
      "outputs": [],
      "stateMutability": "nonpayable",
      "type": "function"
    },
    {
      "inputs": [
        {
          "internalType": "address",
          "name": "account",
          "type": "address"
        },
        {
          "internalType": "address",
          "name": "operator",
          "type": "address"
        }
      ],
      "name": "isApprovedForAll",
      "outputs": [
        {
          "internalType": "bool",
          "name": "",
          "type": "bool"
        }
      ],
      "stateMutability": "view",
      "type": "function"
    },
    {
      "inputs": [
        {
          "internalType": "uint256",
          "name": "tokenId",
          "type": "uint256"
        },
        {
          "internalType": "uint256",
          "name": "amount",
          "type": "uint256"
        }
      ],
      "name": "mint",
      "outputs": [],
      "stateMutability": "payable",
      "type": "function"
    },
    {
      "inputs": [],
      "name": "name",
      "outputs": [
        {
          "internalType": "string",
          "name": "",
          "type": "string"
        }
      ],
      "stateMutability": "view",
      "type": "function"
    },
    {
      "inputs": [],
      "name": "owner",
      "outputs": [
        {
          "internalType": "address",
          "name": "",
          "type": "address"
        }
      ],
      "stateMutability": "view",
      "type": "function"
    },
    {
      "inputs": [],
      "name": "renounceOwnership",
      "outputs": [],
      "stateMutability": "nonpayable",
      "type": "function"
    },
    {
      "inputs": [
        {
          "internalType": "uint256",
          "name": "_tokenId",
          "type": "uint256"
        },
        {
          "internalType": "uint256",
          "name": "_salePrice",
          "type": "uint256"
        }
      ],
      "name": "royaltyInfo",
      "outputs": [
        {
          "internalType": "address",
          "name": "",
          "type": "address"
        },
        {
          "internalType": "uint256",
          "name": "",
          "type": "uint256"
        }
      ],
      "stateMutability": "view",
      "type": "function"
    },
    {
      "inputs": [
        {
          "internalType": "address",
          "name": "from",
          "type": "address"
        },
        {
          "internalType": "address",
          "name": "to",
          "type": "address"
        },
        {
          "internalType": "uint256[]",
          "name": "ids",
          "type": "uint256[]"
        },
        {
          "internalType": "uint256[]",
          "name": "amounts",
          "type": "uint256[]"
        },
        {
          "internalType": "bytes",
          "name": "data",
          "type": "bytes"
        }
      ],
      "name": "safeBatchTransferFrom",
      "outputs": [],
      "stateMutability": "nonpayable",
      "type": "function"
    },
    {
      "inputs": [
        {
          "internalType": "address",
          "name": "from",
          "type": "address"
        },
        {
          "internalType": "address",
          "name": "to",
          "type": "address"
        },
        {
          "internalType": "uint256",
          "name": "id",
          "type": "uint256"
        },
        {
          "internalType": "uint256",
          "name": "amount",
          "type": "uint256"
        },
        {
          "internalType": "bytes",
          "name": "data",
          "type": "bytes"
        }
      ],
      "name": "safeTransferFrom",
      "outputs": [],
      "stateMutability": "nonpayable",
      "type": "function"
    },
    {
      "inputs": [
        {
          "internalType": "address",
          "name": "operator",
          "type": "address"
        },
        {
          "internalType": "bool",
          "name": "approved",
          "type": "bool"
        }
      ],
      "name": "setApprovalForAll",
      "outputs": [],
      "stateMutability": "nonpayable",
      "type": "function"
    },
    {
      "inputs": [
        {
          "internalType": "uint256",
          "name": "tokenId",
          "type": "uint256"
        },
        {
          "internalType": "uint256",
          "name": "price",
          "type": "uint256"
        },
        {
          "internalType": "uint256",
          "name": "limitAmount",
          "type": "uint256"
        }
      ],
      "name": "setItem",
      "outputs": [],
      "stateMutability": "nonpayable",
      "type": "function"
    },
    {
      "inputs": [
        {
          "internalType": "string",
          "name": "newuri",
          "type": "string"
        }
      ],
      "name": "setURI",
      "outputs": [],
      "stateMutability": "nonpayable",
      "type": "function"
    },
    {
      "inputs": [
        {
          "internalType": "bytes4",
          "name": "interfaceId",
          "type": "bytes4"
        }
      ],
      "name": "supportsInterface",
      "outputs": [
        {
          "internalType": "bool",
          "name": "",
          "type": "bool"
        }
      ],
      "stateMutability": "view",
      "type": "function"
    },
    {
      "inputs": [],
      "name": "symbol",
      "outputs": [
        {
          "internalType": "string",
          "name": "",
          "type": "string"
        }
      ],
      "stateMutability": "view",
      "type": "function"
    },
    {
      "inputs": [
        {
          "internalType": "address",
          "name": "newOwner",
          "type": "address"
        }
      ],
      "name": "transferOwnership",
      "outputs": [],
      "stateMutability": "nonpayable",
      "type": "function"
    },
    {
      "inputs": [
        {
          "internalType": "uint256",
          "name": "",
          "type": "uint256"
        }
      ],
      "name": "uri",
      "outputs": [
        {
          "internalType": "string",
          "name": "",
          "type": "string"
        }
      ],
      "stateMutability": "view",
      "type": "function"
    }
  ],
  "transactionHash": "0x7d1039cc1ee248923dfa44b74993b7fac0d9405285a5fab1ea07ce9e25ee9f3b",
  "args": [],
  "numDeployments": 1,
  "solcInputHash": "fc3f202147c93af90e910ac03ab02619",
  "bytecode": "0x608060405234801561001057600080fd5b50612132806100206000396000f3fe6080604052600436106101085760003560e01c8063715018a611610095578063a22cb46511610064578063a22cb465146102da578063e985e9c5146102fa578063ee33646c14610343578063f242432a14610363578063f2fde38b1461038357600080fd5b8063715018a6146102735780638129fc1c146102885780638da5cb5b1461029d57806395d89b41146102c557600080fd5b80630e89341c116100dc5780630e89341c146101b45780631b2ef1ca146101d45780632a55205a146101e75780632eb2c2d6146102265780634e1273f41461024657600080fd5b8062fdd58e1461010d57806301ffc9a71461014057806302fe53051461017057806306fdde0314610192575b600080fd5b34801561011957600080fd5b5061012d610128366004611764565b6103a3565b6040519081526020015b60405180910390f35b34801561014c57600080fd5b5061016061015b3660046117a4565b61043c565b6040519015158152602001610137565b34801561017c57600080fd5b5061019061018b366004611869565b61044d565b005b34801561019e57600080fd5b506101a7610483565b6040516101379190611907565b3480156101c057600080fd5b506101a76101cf36600461191a565b610511565b6101906101e2366004611933565b6105a5565b3480156101f357600080fd5b50610207610202366004611933565b610761565b604080516001600160a01b039093168352602083019190915201610137565b34801561023257600080fd5b50610190610241366004611a0a565b61080d565b34801561025257600080fd5b50610266610261366004611ab4565b6108a4565b6040516101379190611bba565b34801561027f57600080fd5b506101906109ce565b34801561029457600080fd5b50610190610a04565b3480156102a957600080fd5b5060c9546040516001600160a01b039091168152602001610137565b3480156102d157600080fd5b506101a7610afd565b3480156102e657600080fd5b506101906102f5366004611bcd565b610b0a565b34801561030657600080fd5b50610160610315366004611c09565b6001600160a01b03918216600090815260666020908152604080832093909416825291909152205460ff1690565b34801561034f57600080fd5b5061019061035e366004611c3c565b610b19565b34801561036f57600080fd5b5061019061037e366004611c68565b610bcc565b34801561038f57600080fd5b5061019061039e366004611ccd565b610c53565b60006001600160a01b0383166104145760405162461bcd60e51b815260206004820152602b60248201527f455243313135353a2062616c616e636520717565727920666f7220746865207a60448201526a65726f206164647265737360a81b60648201526084015b60405180910390fd5b5060009081526065602090815260408083206001600160a01b03949094168352929052205490565b600061044782610ceb565b92915050565b60c9546001600160a01b031633146104775760405162461bcd60e51b815260040161040b90611ce8565b61048081610d10565b50565b60fc805461049090611d1d565b80601f01602080910402602001604051908101604052809291908181526020018280546104bc90611d1d565b80156105095780601f106104de57610100808354040283529160200191610509565b820191906000526020600020905b8154815290600101906020018083116104ec57829003601f168201915b505050505081565b60606067805461052090611d1d565b80601f016020809104026020016040519081016040528092919081815260200182805461054c90611d1d565b80156105995780601f1061056e57610100808354040283529160200191610599565b820191906000526020600020905b81548152906001019060200180831161057c57829003601f168201915b50505050509050919050565b600181101561060c5760405162461bcd60e51b815260206004820152602d60248201527f596f75206861766520746f206d696e74206174206c656173742031206f72206d60448201526c6f726520617420612074696d6560981b606482015260840161040b565b600082815260fb602052604090206001015461065a5760405162461bcd60e51b815260206004820152600d60248201526c125b9d985b1a59081a5b9c1d5d609a1b604482015260640161040b565b600082815260fb602090815260409182902082516060810184528154815260018201549281018390526002909101549281018390529161069b908490611d6e565b11156106d95760405162461bcd60e51b815260206004820152600d60248201526c131a5b5a5d081c995858da1959609a1b604482015260640161040b565b80516106e6908390611d86565b3410156107285760405162461bcd60e51b815260206004820152601060248201526f4e6f7420656e6f756768206d6f6e657960801b604482015260640161040b565b818160400181815161073a9190611d6e565b9150818152505061075c33848460405180602001604052806000815250610d23565b505050565b60008281526098602090815260408083208151808301909252546001600160a01b038116808352600160a01b9091046001600160601b03169282019290925282916107d65750604080518082019091526097546001600160a01b0381168252600160a01b90046001600160601b031660208201525b6020810151600090612710906107f5906001600160601b031687611d86565b6107ff9190611da5565b915196919550909350505050565b6001600160a01b03851633148061082957506108298533610315565b6108905760405162461bcd60e51b815260206004820152603260248201527f455243313135353a207472616e736665722063616c6c6572206973206e6f74206044820152711bdddb995c881b9bdc88185c1c1c9bdd995960721b606482015260840161040b565b61089d8585858585610e39565b5050505050565b606081518351146109095760405162461bcd60e51b815260206004820152602960248201527f455243313135353a206163636f756e747320616e6420696473206c656e677468604482015268040dad2e6dac2e8c6d60bb1b606482015260840161040b565b6000835167ffffffffffffffff811115610925576109256117c8565b60405190808252806020026020018201604052801561094e578160200160208202803683370190505b50905060005b84518110156109c65761099985828151811061097257610972611dc7565b602002602001015185838151811061098c5761098c611dc7565b60200260200101516103a3565b8282815181106109ab576109ab611dc7565b60209081029190910101526109bf81611ddd565b9050610954565b509392505050565b60c9546001600160a01b031633146109f85760405162461bcd60e51b815260040161040b90611ce8565b610a026000611019565b565b6000610a10600161106b565b90508015610a28576000805461ff0019166101001790555b60408051808201909152600d8082526c53616d706c654552433131353560981b6020909201918252610a5c9160fc916116b4565b5060408051808201909152600880825267534552433131353560c01b6020909201918252610a8c9160fd916116b4565b50610aa5604051806020016040528060008152506110f8565b610aad611128565b610ab5611157565b8015610480576000805461ff0019169055604051600181527f7f26b83ff96e1f2b6a682f133852f6798a09c465da95921460cefb38474024989060200160405180910390a150565b60fd805461049090611d1d565b610b1533838361117e565b5050565b60c9546001600160a01b03163314610b435760405162461bcd60e51b815260040161040b90611ce8565b600083815260fb602052604090206001015415610b925760405162461bcd60e51b815260206004820152600d60248201526c125b9d985b1a59081a5b9c1d5d609a1b604482015260640161040b565b604080516060810182529283526020808401928352600084830181815295815260fb90915220915182555160018201559051600290910155565b6001600160a01b038516331480610be85750610be88533610315565b610c465760405162461bcd60e51b815260206004820152602960248201527f455243313135353a2063616c6c6572206973206e6f74206f776e6572206e6f7260448201526808185c1c1c9bdd995960ba1b606482015260840161040b565b61089d858585858561125f565b60c9546001600160a01b03163314610c7d5760405162461bcd60e51b815260040161040b90611ce8565b6001600160a01b038116610ce25760405162461bcd60e51b815260206004820152602660248201527f4f776e61626c653a206e6577206f776e657220697320746865207a65726f206160448201526564647265737360d01b606482015260840161040b565b61048081611019565b60006001600160e01b0319821663152a902d60e11b148061044757506104478261138d565b8051610b159060679060208401906116b4565b6001600160a01b038416610d835760405162461bcd60e51b815260206004820152602160248201527f455243313135353a206d696e7420746f20746865207a65726f206164647265736044820152607360f81b606482015260840161040b565b336000610d8f856113dd565b90506000610d9c856113dd565b905060008681526065602090815260408083206001600160a01b038b16845290915281208054879290610dd0908490611d6e565b909155505060408051878152602081018790526001600160a01b03808a1692600092918716917fc3d58168c5ae7397731d063d5bbf3d657854427343f4c083240f7aacaa2d0f62910160405180910390a4610e3083600089898989611428565b50505050505050565b8151835114610e9b5760405162461bcd60e51b815260206004820152602860248201527f455243313135353a2069647320616e6420616d6f756e7473206c656e677468206044820152670dad2e6dac2e8c6d60c31b606482015260840161040b565b6001600160a01b038416610ec15760405162461bcd60e51b815260040161040b90611df8565b3360005b8451811015610fab576000858281518110610ee257610ee2611dc7565b602002602001015190506000858381518110610f0057610f00611dc7565b60209081029190910181015160008481526065835260408082206001600160a01b038e168352909352919091205490915081811015610f515760405162461bcd60e51b815260040161040b90611e3d565b60008381526065602090815260408083206001600160a01b038e8116855292528083208585039055908b16825281208054849290610f90908490611d6e565b9250508190555050505080610fa490611ddd565b9050610ec5565b50846001600160a01b0316866001600160a01b0316826001600160a01b03167f4a39dc06d4c0dbc64b70af90fd698a233a518aa5d07e595d983b8c0526c8f7fb8787604051610ffb929190611e87565b60405180910390a4611011818787878787611593565b505050505050565b60c980546001600160a01b038381166001600160a01b0319831681179093556040519116919082907f8be0079c531659141344cd1fd0a4f28419497f9722a3daafe3b4186f6b6457e090600090a35050565b60008054610100900460ff16156110b2578160ff16600114801561108e5750303b155b6110aa5760405162461bcd60e51b815260040161040b90611eb5565b506000919050565b60005460ff8084169116106110d95760405162461bcd60e51b815260040161040b90611eb5565b506000805460ff191660ff92909216919091179055600190565b919050565b600054610100900460ff1661111f5760405162461bcd60e51b815260040161040b90611f03565b6104808161165d565b600054610100900460ff1661114f5760405162461bcd60e51b815260040161040b90611f03565b610a02611684565b600054610100900460ff16610a025760405162461bcd60e51b815260040161040b90611f03565b816001600160a01b0316836001600160a01b031614156111f25760405162461bcd60e51b815260206004820152602960248201527f455243313135353a2073657474696e6720617070726f76616c20737461747573604482015268103337b91039b2b63360b91b606482015260840161040b565b6001600160a01b03838116600081815260666020908152604080832094871680845294825291829020805460ff191686151590811790915591519182527f17307eab39ab6107e8899845ad3d59bd9653f200f220920489ca2b5937696c31910160405180910390a3505050565b6001600160a01b0384166112855760405162461bcd60e51b815260040161040b90611df8565b336000611291856113dd565b9050600061129e856113dd565b905060008681526065602090815260408083206001600160a01b038c168452909152902054858110156112e35760405162461bcd60e51b815260040161040b90611e3d565b60008781526065602090815260408083206001600160a01b038d8116855292528083208985039055908a16825281208054889290611322908490611d6e565b909155505060408051888152602081018890526001600160a01b03808b16928c821692918816917fc3d58168c5ae7397731d063d5bbf3d657854427343f4c083240f7aacaa2d0f62910160405180910390a4611382848a8a8a8a8a611428565b505050505050505050565b60006001600160e01b03198216636cdb3d1360e11b14806113be57506001600160e01b031982166303a24d0760e21b145b8061044757506301ffc9a760e01b6001600160e01b0319831614610447565b6040805160018082528183019092526060916000919060208083019080368337019050509050828160008151811061141757611417611dc7565b602090810291909101015292915050565b6001600160a01b0384163b156110115760405163f23a6e6160e01b81526001600160a01b0385169063f23a6e619061146c9089908990889088908890600401611f4e565b602060405180830381600087803b15801561148657600080fd5b505af19250505080156114b6575060408051601f3d908101601f191682019092526114b391810190611f93565b60015b611563576114c2611fb0565b806308c379a014156114fc57506114d7611fcc565b806114e257506114fe565b8060405162461bcd60e51b815260040161040b9190611907565b505b60405162461bcd60e51b815260206004820152603460248201527f455243313135353a207472616e7366657220746f206e6f6e20455243313135356044820152732932b1b2b4bb32b91034b6b83632b6b2b73a32b960611b606482015260840161040b565b6001600160e01b0319811663f23a6e6160e01b14610e305760405162461bcd60e51b815260040161040b90612056565b6001600160a01b0384163b156110115760405163bc197c8160e01b81526001600160a01b0385169063bc197c81906115d7908990899088908890889060040161209e565b602060405180830381600087803b1580156115f157600080fd5b505af1925050508015611621575060408051601f3d908101601f1916820190925261161e91810190611f93565b60015b61162d576114c2611fb0565b6001600160e01b0319811663bc197c8160e01b14610e305760405162461bcd60e51b815260040161040b90612056565b600054610100900460ff166104775760405162461bcd60e51b815260040161040b90611f03565b600054610100900460ff166116ab5760405162461bcd60e51b815260040161040b90611f03565b610a0233611019565b8280546116c090611d1d565b90600052602060002090601f0160209004810192826116e25760008555611728565b82601f106116fb57805160ff1916838001178555611728565b82800160010185558215611728579182015b8281111561172857825182559160200191906001019061170d565b50611734929150611738565b5090565b5b808211156117345760008155600101611739565b80356001600160a01b03811681146110f357600080fd5b6000806040838503121561177757600080fd5b6117808361174d565b946020939093013593505050565b6001600160e01b03198116811461048057600080fd5b6000602082840312156117b657600080fd5b81356117c18161178e565b9392505050565b634e487b7160e01b600052604160045260246000fd5b601f8201601f1916810167ffffffffffffffff81118282101715611804576118046117c8565b6040525050565b600067ffffffffffffffff831115611825576118256117c8565b60405161183c601f8501601f1916602001826117de565b80915083815284848401111561185157600080fd5b83836020830137600060208583010152509392505050565b60006020828403121561187b57600080fd5b813567ffffffffffffffff81111561189257600080fd5b8201601f810184136118a357600080fd5b6118b28482356020840161180b565b949350505050565b6000815180845260005b818110156118e0576020818501810151868301820152016118c4565b818111156118f2576000602083870101525b50601f01601f19169290920160200192915050565b6020815260006117c160208301846118ba565b60006020828403121561192c57600080fd5b5035919050565b6000806040838503121561194657600080fd5b50508035926020909101359150565b600067ffffffffffffffff82111561196f5761196f6117c8565b5060051b60200190565b600082601f83011261198a57600080fd5b8135602061199782611955565b6040516119a482826117de565b83815260059390931b85018201928281019150868411156119c457600080fd5b8286015b848110156119df57803583529183019183016119c8565b509695505050505050565b600082601f8301126119fb57600080fd5b6117c18383356020850161180b565b600080600080600060a08688031215611a2257600080fd5b611a2b8661174d565b9450611a396020870161174d565b9350604086013567ffffffffffffffff80821115611a5657600080fd5b611a6289838a01611979565b94506060880135915080821115611a7857600080fd5b611a8489838a01611979565b93506080880135915080821115611a9a57600080fd5b50611aa7888289016119ea565b9150509295509295909350565b60008060408385031215611ac757600080fd5b823567ffffffffffffffff80821115611adf57600080fd5b818501915085601f830112611af357600080fd5b81356020611b0082611955565b604051611b0d82826117de565b83815260059390931b8501820192828101915089841115611b2d57600080fd5b948201945b83861015611b5257611b438661174d565b82529482019490820190611b32565b96505086013592505080821115611b6857600080fd5b50611b7585828601611979565b9150509250929050565b600081518084526020808501945080840160005b83811015611baf57815187529582019590820190600101611b93565b509495945050505050565b6020815260006117c16020830184611b7f565b60008060408385031215611be057600080fd5b611be98361174d565b915060208301358015158114611bfe57600080fd5b809150509250929050565b60008060408385031215611c1c57600080fd5b611c258361174d565b9150611c336020840161174d565b90509250929050565b600080600060608486031215611c5157600080fd5b505081359360208301359350604090920135919050565b600080600080600060a08688031215611c8057600080fd5b611c898661174d565b9450611c976020870161174d565b93506040860135925060608601359150608086013567ffffffffffffffff811115611cc157600080fd5b611aa7888289016119ea565b600060208284031215611cdf57600080fd5b6117c18261174d565b6020808252818101527f4f776e61626c653a2063616c6c6572206973206e6f7420746865206f776e6572604082015260600190565b600181811c90821680611d3157607f821691505b60208210811415611d5257634e487b7160e01b600052602260045260246000fd5b50919050565b634e487b7160e01b600052601160045260246000fd5b60008219821115611d8157611d81611d58565b500190565b6000816000190483118215151615611da057611da0611d58565b500290565b600082611dc257634e487b7160e01b600052601260045260246000fd5b500490565b634e487b7160e01b600052603260045260246000fd5b6000600019821415611df157611df1611d58565b5060010190565b60208082526025908201527f455243313135353a207472616e7366657220746f20746865207a65726f206164604082015264647265737360d81b606082015260800190565b6020808252602a908201527f455243313135353a20696e73756666696369656e742062616c616e636520666f60408201526939103a3930b739b332b960b11b606082015260800190565b604081526000611e9a6040830185611b7f565b8281036020840152611eac8185611b7f565b95945050505050565b6020808252602e908201527f496e697469616c697a61626c653a20636f6e747261637420697320616c72656160408201526d191e481a5b9a5d1a585b1a5e995960921b606082015260800190565b6020808252602b908201527f496e697469616c697a61626c653a20636f6e7472616374206973206e6f74206960408201526a6e697469616c697a696e6760a81b606082015260800190565b6001600160a01b03868116825285166020820152604081018490526060810183905260a060808201819052600090611f88908301846118ba565b979650505050505050565b600060208284031215611fa557600080fd5b81516117c18161178e565b600060033d1115611fc95760046000803e5060005160e01c5b90565b600060443d1015611fda5790565b6040516003193d81016004833e81513d67ffffffffffffffff816024840111818411171561200a57505050505090565b82850191508151818111156120225750505050505090565b843d870101602082850101111561203c5750505050505090565b61204b602082860101876117de565b509095945050505050565b60208082526028908201527f455243313135353a204552433131353552656365697665722072656a656374656040820152676420746f6b656e7360c01b606082015260800190565b6001600160a01b0386811682528516602082015260a0604082018190526000906120ca90830186611b7f565b82810360608401526120dc8186611b7f565b905082810360808401526120f081856118ba565b9897505050505050505056fea2646970667358221220147190aaadd433872eaec5a9bd930213e0273603a2fb22adfa848629a040179b64736f6c63430008090033",
  "devdoc": {
    "kind": "dev",
    "methods": {
      "balanceOf(address,uint256)": {
        "details": "See {IERC1155-balanceOf}. Requirements: - `account` cannot be the zero address."
      },
      "balanceOfBatch(address[],uint256[])": {
        "details": "See {IERC1155-balanceOfBatch}. Requirements: - `accounts` and `ids` must have the same length."
      },
      "isApprovedForAll(address,address)": {
        "details": "See {IERC1155-isApprovedForAll}."
      },
      "owner()": {
        "details": "Returns the address of the current owner."
      },
      "renounceOwnership()": {
        "details": "Leaves the contract without owner. It will not be possible to call `onlyOwner` functions anymore. Can only be called by the current owner. NOTE: Renouncing ownership will leave the contract without an owner, thereby removing any functionality that is only available to the owner."
      },
      "royaltyInfo(uint256,uint256)": {
        "details": "Returns how much royalty is owed and to whom, based on a sale price that may be denominated in any unit of exchange. The royalty amount is denominated and should be paid in that same unit of exchange."
      },
      "safeBatchTransferFrom(address,address,uint256[],uint256[],bytes)": {
        "details": "See {IERC1155-safeBatchTransferFrom}."
      },
      "safeTransferFrom(address,address,uint256,uint256,bytes)": {
        "details": "See {IERC1155-safeTransferFrom}."
      },
      "setApprovalForAll(address,bool)": {
        "details": "See {IERC1155-setApprovalForAll}."
      },
      "transferOwnership(address)": {
        "details": "Transfers ownership of the contract to a new account (`newOwner`). Can only be called by the current owner."
      },
      "uri(uint256)": {
        "details": "See {IERC1155MetadataURI-uri}. This implementation returns the same URI for *all* token types. It relies on the token type ID substitution mechanism https://eips.ethereum.org/EIPS/eip-1155#metadata[defined in the EIP]. Clients calling this function must replace the `\\{id\\}` substring with the actual token type ID."
      }
    },
    "version": 1
  },
  "userdoc": {
    "kind": "user",
    "methods": {},
    "version": 1
  },
  "storageLayout": {
    "storage": [
      {
        "astId": 149,
        "contract": "contracts/SampleERC1155V1.sol:SampleERC1155V1",
        "label": "_initialized",
        "offset": 0,
        "slot": "0",
        "type": "t_uint8"
      },
      {
        "astId": 152,
        "contract": "contracts/SampleERC1155V1.sol:SampleERC1155V1",
        "label": "_initializing",
        "offset": 1,
        "slot": "0",
        "type": "t_bool"
      },
      {
        "astId": 2209,
        "contract": "contracts/SampleERC1155V1.sol:SampleERC1155V1",
        "label": "__gap",
        "offset": 0,
        "slot": "1",
        "type": "t_array(t_uint256)50_storage"
      },
      {
        "astId": 2253,
        "contract": "contracts/SampleERC1155V1.sol:SampleERC1155V1",
        "label": "__gap",
        "offset": 0,
        "slot": "51",
        "type": "t_array(t_uint256)50_storage"
      },
      {
        "astId": 313,
        "contract": "contracts/SampleERC1155V1.sol:SampleERC1155V1",
        "label": "_balances",
        "offset": 0,
        "slot": "101",
        "type": "t_mapping(t_uint256,t_mapping(t_address,t_uint256))"
      },
      {
        "astId": 319,
        "contract": "contracts/SampleERC1155V1.sol:SampleERC1155V1",
        "label": "_operatorApprovals",
        "offset": 0,
        "slot": "102",
        "type": "t_mapping(t_address,t_mapping(t_address,t_bool))"
      },
      {
        "astId": 321,
        "contract": "contracts/SampleERC1155V1.sol:SampleERC1155V1",
        "label": "_uri",
        "offset": 0,
        "slot": "103",
        "type": "t_string_storage"
      },
      {
        "astId": 1528,
        "contract": "contracts/SampleERC1155V1.sol:SampleERC1155V1",
        "label": "__gap",
        "offset": 0,
        "slot": "104",
        "type": "t_array(t_uint256)47_storage"
      },
      {
        "astId": 1739,
        "contract": "contracts/SampleERC1155V1.sol:SampleERC1155V1",
        "label": "_defaultRoyaltyInfo",
        "offset": 0,
        "slot": "151",
        "type": "t_struct(RoyaltyInfo)1736_storage"
      },
      {
        "astId": 1744,
        "contract": "contracts/SampleERC1155V1.sol:SampleERC1155V1",
        "label": "_tokenRoyaltyInfo",
        "offset": 0,
        "slot": "152",
        "type": "t_mapping(t_uint256,t_struct(RoyaltyInfo)1736_storage)"
      },
      {
        "astId": 1924,
        "contract": "contracts/SampleERC1155V1.sol:SampleERC1155V1",
        "label": "__gap",
        "offset": 0,
        "slot": "153",
        "type": "t_array(t_uint256)48_storage"
      },
      {
        "astId": 10,
        "contract": "contracts/SampleERC1155V1.sol:SampleERC1155V1",
        "label": "_owner",
        "offset": 0,
        "slot": "201",
        "type": "t_address"
      },
      {
        "astId": 122,
        "contract": "contracts/SampleERC1155V1.sol:SampleERC1155V1",
        "label": "__gap",
        "offset": 0,
        "slot": "202",
        "type": "t_array(t_uint256)49_storage"
      },
      {
        "astId": 2282,
        "contract": "contracts/SampleERC1155V1.sol:SampleERC1155V1",
        "label": "items",
        "offset": 0,
        "slot": "251",
        "type": "t_mapping(t_uint256,t_struct(Item)2293_storage)"
      },
      {
        "astId": 2284,
        "contract": "contracts/SampleERC1155V1.sol:SampleERC1155V1",
        "label": "name",
        "offset": 0,
        "slot": "252",
        "type": "t_string_storage"
      },
      {
        "astId": 2286,
        "contract": "contracts/SampleERC1155V1.sol:SampleERC1155V1",
        "label": "symbol",
        "offset": 0,
        "slot": "253",
        "type": "t_string_storage"
      }
    ],
    "types": {
      "t_address": {
        "encoding": "inplace",
        "label": "address",
        "numberOfBytes": "20"
      },
      "t_array(t_uint256)47_storage": {
        "base": "t_uint256",
        "encoding": "inplace",
        "label": "uint256[47]",
        "numberOfBytes": "1504"
      },
      "t_array(t_uint256)48_storage": {
        "base": "t_uint256",
        "encoding": "inplace",
        "label": "uint256[48]",
        "numberOfBytes": "1536"
      },
      "t_array(t_uint256)49_storage": {
        "base": "t_uint256",
        "encoding": "inplace",
        "label": "uint256[49]",
        "numberOfBytes": "1568"
      },
      "t_array(t_uint256)50_storage": {
        "base": "t_uint256",
        "encoding": "inplace",
        "label": "uint256[50]",
        "numberOfBytes": "1600"
      },
      "t_bool": {
        "encoding": "inplace",
        "label": "bool",
        "numberOfBytes": "1"
      },
      "t_mapping(t_address,t_bool)": {
        "encoding": "mapping",
        "key": "t_address",
        "label": "mapping(address => bool)",
        "numberOfBytes": "32",
        "value": "t_bool"
      },
      "t_mapping(t_address,t_mapping(t_address,t_bool))": {
        "encoding": "mapping",
        "key": "t_address",
        "label": "mapping(address => mapping(address => bool))",
        "numberOfBytes": "32",
        "value": "t_mapping(t_address,t_bool)"
      },
      "t_mapping(t_address,t_uint256)": {
        "encoding": "mapping",
        "key": "t_address",
        "label": "mapping(address => uint256)",
        "numberOfBytes": "32",
        "value": "t_uint256"
      },
      "t_mapping(t_uint256,t_mapping(t_address,t_uint256))": {
        "encoding": "mapping",
        "key": "t_uint256",
        "label": "mapping(uint256 => mapping(address => uint256))",
        "numberOfBytes": "32",
        "value": "t_mapping(t_address,t_uint256)"
      },
      "t_mapping(t_uint256,t_struct(Item)2293_storage)": {
        "encoding": "mapping",
        "key": "t_uint256",
        "label": "mapping(uint256 => struct SampleERC1155V1.Item)",
        "numberOfBytes": "32",
        "value": "t_struct(Item)2293_storage"
      },
      "t_mapping(t_uint256,t_struct(RoyaltyInfo)1736_storage)": {
        "encoding": "mapping",
        "key": "t_uint256",
        "label": "mapping(uint256 => struct ERC2981Upgradeable.RoyaltyInfo)",
        "numberOfBytes": "32",
        "value": "t_struct(RoyaltyInfo)1736_storage"
      },
      "t_string_storage": {
        "encoding": "bytes",
        "label": "string",
        "numberOfBytes": "32"
      },
      "t_struct(Item)2293_storage": {
        "encoding": "inplace",
        "label": "struct SampleERC1155V1.Item",
        "members": [
          {
            "astId": 2288,
            "contract": "contracts/SampleERC1155V1.sol:SampleERC1155V1",
            "label": "price",
            "offset": 0,
            "slot": "0",
            "type": "t_uint256"
          },
          {
            "astId": 2290,
            "contract": "contracts/SampleERC1155V1.sol:SampleERC1155V1",
            "label": "limitAmount",
            "offset": 0,
            "slot": "1",
            "type": "t_uint256"
          },
          {
            "astId": 2292,
            "contract": "contracts/SampleERC1155V1.sol:SampleERC1155V1",
            "label": "mintedAmount",
            "offset": 0,
            "slot": "2",
            "type": "t_uint256"
          }
        ],
        "numberOfBytes": "96"
      },
      "t_struct(RoyaltyInfo)1736_storage": {
        "encoding": "inplace",
        "label": "struct ERC2981Upgradeable.RoyaltyInfo",
        "members": [
          {
            "astId": 1733,
            "contract": "contracts/SampleERC1155V1.sol:SampleERC1155V1",
            "label": "receiver",
            "offset": 0,
            "slot": "0",
            "type": "t_address"
          },
          {
            "astId": 1735,
            "contract": "contracts/SampleERC1155V1.sol:SampleERC1155V1",
            "label": "royaltyFraction",
            "offset": 20,
            "slot": "0",
            "type": "t_uint96"
          }
        ],
        "numberOfBytes": "32"
      },
      "t_uint256": {
        "encoding": "inplace",
        "label": "uint256",
        "numberOfBytes": "32"
      },
      "t_uint8": {
        "encoding": "inplace",
        "label": "uint8",
        "numberOfBytes": "1"
      },
      "t_uint96": {
        "encoding": "inplace",
        "label": "uint96",
        "numberOfBytes": "12"
      }
    }
  }
}