{
  "address": "0x5fBB2F49c2755Fe74727b90EEc5f504956E82100",
  "abi": [
    {
      "inputs": [],
      "stateMutability": "nonpayable",
      "type": "constructor"
    },
    {
      "anonymous": false,
      "inputs": [
        {
          "indexed": true,
          "internalType": "address",
          "name": "account",
          "type": "address"
        },
        {
          "indexed": true,
          "internalType": "address",
          "name": "operator",
          "type": "address"
        },
        {
          "indexed": false,
          "internalType": "bool",
          "name": "approved",
          "type": "bool"
        }
      ],
      "name": "ApprovalForAll",
      "type": "event"
    },
    {
      "anonymous": false,
      "inputs": [
        {
          "indexed": true,
          "internalType": "address",
          "name": "previousOwner",
          "type": "address"
        },
        {
          "indexed": true,
          "internalType": "address",
          "name": "newOwner",
          "type": "address"
        }
      ],
      "name": "OwnershipTransferred",
      "type": "event"
    },
    {
      "anonymous": false,
      "inputs": [
        {
          "indexed": true,
          "internalType": "address",
          "name": "operator",
          "type": "address"
        },
        {
          "indexed": true,
          "internalType": "address",
          "name": "from",
          "type": "address"
        },
        {
          "indexed": true,
          "internalType": "address",
          "name": "to",
          "type": "address"
        },
        {
          "indexed": false,
          "internalType": "uint256[]",
          "name": "ids",
          "type": "uint256[]"
        },
        {
          "indexed": false,
          "internalType": "uint256[]",
          "name": "values",
          "type": "uint256[]"
        }
      ],
      "name": "TransferBatch",
      "type": "event"
    },
    {
      "anonymous": false,
      "inputs": [
        {
          "indexed": true,
          "internalType": "address",
          "name": "operator",
          "type": "address"
        },
        {
          "indexed": true,
          "internalType": "address",
          "name": "from",
          "type": "address"
        },
        {
          "indexed": true,
          "internalType": "address",
          "name": "to",
          "type": "address"
        },
        {
          "indexed": false,
          "internalType": "uint256",
          "name": "id",
          "type": "uint256"
        },
        {
          "indexed": false,
          "internalType": "uint256",
          "name": "value",
          "type": "uint256"
        }
      ],
      "name": "TransferSingle",
      "type": "event"
    },
    {
      "anonymous": false,
      "inputs": [
        {
          "indexed": false,
          "internalType": "string",
          "name": "value",
          "type": "string"
        },
        {
          "indexed": true,
          "internalType": "uint256",
          "name": "id",
          "type": "uint256"
        }
      ],
      "name": "URI",
      "type": "event"
    },
    {
      "inputs": [
        {
          "internalType": "address",
          "name": "account",
          "type": "address"
        },
        {
          "internalType": "uint256",
          "name": "id",
          "type": "uint256"
        }
      ],
      "name": "balanceOf",
      "outputs": [
        {
          "internalType": "uint256",
          "name": "",
          "type": "uint256"
        }
      ],
      "stateMutability": "view",
      "type": "function"
    },
    {
      "inputs": [
        {
          "internalType": "address[]",
          "name": "accounts",
          "type": "address[]"
        },
        {
          "internalType": "uint256[]",
          "name": "ids",
          "type": "uint256[]"
        }
      ],
      "name": "balanceOfBatch",
      "outputs": [
        {
          "internalType": "uint256[]",
          "name": "",
          "type": "uint256[]"
        }
      ],
      "stateMutability": "view",
      "type": "function"
    },
    {
      "inputs": [
        {
          "internalType": "address",
          "name": "account",
          "type": "address"
        },
        {
          "internalType": "address",
          "name": "operator",
          "type": "address"
        }
      ],
      "name": "isApprovedForAll",
      "outputs": [
        {
          "internalType": "bool",
          "name": "",
          "type": "bool"
        }
      ],
      "stateMutability": "view",
      "type": "function"
    },
    {
      "inputs": [
        {
          "internalType": "uint256",
          "name": "tokenId",
          "type": "uint256"
        },
        {
          "internalType": "uint256",
          "name": "amount",
          "type": "uint256"
        }
      ],
      "name": "mint",
      "outputs": [],
      "stateMutability": "payable",
      "type": "function"
    },
    {
      "inputs": [],
      "name": "owner",
      "outputs": [
        {
          "internalType": "address",
          "name": "",
          "type": "address"
        }
      ],
      "stateMutability": "view",
      "type": "function"
    },
    {
      "inputs": [
        {
          "internalType": "uint256",
          "name": "tokenId",
          "type": "uint256"
        },
        {
          "internalType": "uint256",
          "name": "price",
          "type": "uint256"
        },
        {
          "internalType": "uint256",
          "name": "limitAmount",
          "type": "uint256"
        }
      ],
      "name": "register",
      "outputs": [],
      "stateMutability": "nonpayable",
      "type": "function"
    },
    {
      "inputs": [],
      "name": "renounceOwnership",
      "outputs": [],
      "stateMutability": "nonpayable",
      "type": "function"
    },
    {
      "inputs": [
        {
          "internalType": "uint256",
          "name": "_tokenId",
          "type": "uint256"
        },
        {
          "internalType": "uint256",
          "name": "_salePrice",
          "type": "uint256"
        }
      ],
      "name": "royaltyInfo",
      "outputs": [
        {
          "internalType": "address",
          "name": "",
          "type": "address"
        },
        {
          "internalType": "uint256",
          "name": "",
          "type": "uint256"
        }
      ],
      "stateMutability": "view",
      "type": "function"
    },
    {
      "inputs": [
        {
          "internalType": "address",
          "name": "from",
          "type": "address"
        },
        {
          "internalType": "address",
          "name": "to",
          "type": "address"
        },
        {
          "internalType": "uint256[]",
          "name": "ids",
          "type": "uint256[]"
        },
        {
          "internalType": "uint256[]",
          "name": "amounts",
          "type": "uint256[]"
        },
        {
          "internalType": "bytes",
          "name": "data",
          "type": "bytes"
        }
      ],
      "name": "safeBatchTransferFrom",
      "outputs": [],
      "stateMutability": "nonpayable",
      "type": "function"
    },
    {
      "inputs": [
        {
          "internalType": "address",
          "name": "from",
          "type": "address"
        },
        {
          "internalType": "address",
          "name": "to",
          "type": "address"
        },
        {
          "internalType": "uint256",
          "name": "id",
          "type": "uint256"
        },
        {
          "internalType": "uint256",
          "name": "amount",
          "type": "uint256"
        },
        {
          "internalType": "bytes",
          "name": "data",
          "type": "bytes"
        }
      ],
      "name": "safeTransferFrom",
      "outputs": [],
      "stateMutability": "nonpayable",
      "type": "function"
    },
    {
      "inputs": [
        {
          "internalType": "address",
          "name": "operator",
          "type": "address"
        },
        {
          "internalType": "bool",
          "name": "approved",
          "type": "bool"
        }
      ],
      "name": "setApprovalForAll",
      "outputs": [],
      "stateMutability": "nonpayable",
      "type": "function"
    },
    {
      "inputs": [
        {
          "internalType": "string",
          "name": "uri",
          "type": "string"
        }
      ],
      "name": "setURI",
      "outputs": [],
      "stateMutability": "nonpayable",
      "type": "function"
    },
    {
      "inputs": [
        {
          "internalType": "bytes4",
          "name": "interfaceId",
          "type": "bytes4"
        }
      ],
      "name": "supportsInterface",
      "outputs": [
        {
          "internalType": "bool",
          "name": "",
          "type": "bool"
        }
      ],
      "stateMutability": "view",
      "type": "function"
    },
    {
      "inputs": [
        {
          "internalType": "address",
          "name": "newOwner",
          "type": "address"
        }
      ],
      "name": "transferOwnership",
      "outputs": [],
      "stateMutability": "nonpayable",
      "type": "function"
    },
    {
      "inputs": [
        {
          "internalType": "uint256",
          "name": "",
          "type": "uint256"
        }
      ],
      "name": "uri",
      "outputs": [
        {
          "internalType": "string",
          "name": "",
          "type": "string"
        }
      ],
      "stateMutability": "view",
      "type": "function"
    }
  ],
  "transactionHash": "0x9cddabf2dfa53acdf7ac3b4ac3d21b7d35318a8f58a4c675afd257a10d844d5c",
  "args": [],
  "numDeployments": 2,
  "solcInputHash": "6191ca04f4473c2dbe5eccb68b4359e9",
  "bytecode": "0x60806040523480156200001157600080fd5b506040805160208101909152600081526200002c8162000062565b5062000038336200007b565b6200005c6040518060800160405280605a815260200162001e4f605a913962000062565b620001b0565b805162000077906002906020840190620000cd565b5050565b600580546001600160a01b038381166001600160a01b0319831681179093556040519116919082907f8be0079c531659141344cd1fd0a4f28419497f9722a3daafe3b4186f6b6457e090600090a35050565b828054620000db9062000173565b90600052602060002090601f016020900481019282620000ff57600085556200014a565b82601f106200011a57805160ff19168380011785556200014a565b828001600101855582156200014a579182015b828111156200014a5782518255916020019190600101906200012d565b50620001589291506200015c565b5090565b5b808211156200015857600081556001016200015d565b600181811c908216806200018857607f821691505b60208210811415620001aa57634e487b7160e01b600052602260045260246000fd5b50919050565b611c8f80620001c06000396000f3fe6080604052600436106100e75760003560e01c80634e1273f41161008a578063e985e9c511610059578063e985e9c51461029a578063f242432a146102e3578063f2fde38b14610303578063faa5c5641461032357600080fd5b80634e1273f414610210578063715018a61461023d5780638da5cb5b14610252578063a22cb4651461027a57600080fd5b80630e89341c116100c65780630e89341c146101715780631b2ef1ca1461019e5780632a55205a146101b15780632eb2c2d6146101f057600080fd5b8062fdd58e146100ec57806301ffc9a71461011f57806302fe53051461014f575b600080fd5b3480156100f857600080fd5b5061010c61010736600461135a565b610343565b6040519081526020015b60405180910390f35b34801561012b57600080fd5b5061013f61013a36600461139a565b6103da565b6040519015158152602001610116565b34801561015b57600080fd5b5061016f61016a36600461145f565b610405565b005b34801561017d57600080fd5b5061019161018c3660046114b0565b61043b565b6040516101169190611516565b61016f6101ac366004611529565b6104cf565b3480156101bd57600080fd5b506101d16101cc366004611529565b61063a565b604080516001600160a01b039093168352602083019190915201610116565b3480156101fc57600080fd5b5061016f61020b366004611600565b6106e6565b34801561021c57600080fd5b5061023061022b3660046116aa565b61077d565b60405161011691906117b0565b34801561024957600080fd5b5061016f6108a7565b34801561025e57600080fd5b506005546040516001600160a01b039091168152602001610116565b34801561028657600080fd5b5061016f6102953660046117c3565b6108dd565b3480156102a657600080fd5b5061013f6102b53660046117ff565b6001600160a01b03918216600090815260016020908152604080832093909416825291909152205460ff1690565b3480156102ef57600080fd5b5061016f6102fe366004611832565b6108e8565b34801561030f57600080fd5b5061016f61031e366004611897565b61096f565b34801561032f57600080fd5b5061016f61033e3660046118b2565b610a07565b60006001600160a01b0383166103b45760405162461bcd60e51b815260206004820152602b60248201527f455243313135353a2062616c616e636520717565727920666f7220746865207a60448201526a65726f206164647265737360a81b60648201526084015b60405180910390fd5b506000908152602081815260408083206001600160a01b03949094168352929052205490565b60006001600160e01b0319821663152a902d60e11b14806103ff57506103ff82610a4f565b92915050565b6005546001600160a01b0316331461042f5760405162461bcd60e51b81526004016103ab906118de565b61043881610a74565b50565b60606002805461044a90611913565b80601f016020809104026020016040519081016040528092919081815260200182805461047690611913565b80156104c35780601f10610498576101008083540402835291602001916104c3565b820191906000526020600020905b8154815290600101906020018083116104a657829003601f168201915b50505050509050919050565b60018110156105365760405162461bcd60e51b815260206004820152602d60248201527f596f75206861766520746f206d696e74206174206c656173742031206f72206d60448201526c6f726520617420612074696d6560981b60648201526084016103ab565b60008281526007602090815260408083205460089092529091205461055c908390611964565b111561059a5760405162461bcd60e51b815260206004820152600d60248201526c131a5b5a5d081c995858da1959609a1b60448201526064016103ab565b6000828152600660205260409020546105b490829061197c565b3410156105f65760405162461bcd60e51b815260206004820152601060248201526f4e6f7420656e6f756768206d6f6e657960801b60448201526064016103ab565b60008281526008602052604081208054839290610614908490611964565b9250508190555061063633838360405180602001604052806000815250610a87565b5050565b60008281526004602090815260408083208151808301909252546001600160a01b038116808352600160a01b9091046001600160601b03169282019290925282916106af5750604080518082019091526003546001600160a01b0381168252600160a01b90046001600160601b031660208201525b6020810151600090612710906106ce906001600160601b03168761197c565b6106d8919061199b565b915196919550909350505050565b6001600160a01b038516331480610702575061070285336102b5565b6107695760405162461bcd60e51b815260206004820152603260248201527f455243313135353a207472616e736665722063616c6c6572206973206e6f74206044820152711bdddb995c881b9bdc88185c1c1c9bdd995960721b60648201526084016103ab565b6107768585858585610b9b565b5050505050565b606081518351146107e25760405162461bcd60e51b815260206004820152602960248201527f455243313135353a206163636f756e747320616e6420696473206c656e677468604482015268040dad2e6dac2e8c6d60bb1b60648201526084016103ab565b6000835167ffffffffffffffff8111156107fe576107fe6113be565b604051908082528060200260200182016040528015610827578160200160208202803683370190505b50905060005b845181101561089f5761087285828151811061084b5761084b6119bd565b6020026020010151858381518110610865576108656119bd565b6020026020010151610343565b828281518110610884576108846119bd565b6020908102919091010152610898816119d3565b905061082d565b509392505050565b6005546001600160a01b031633146108d15760405162461bcd60e51b81526004016103ab906118de565b6108db6000610d78565b565b610636338383610dca565b6001600160a01b038516331480610904575061090485336102b5565b6109625760405162461bcd60e51b815260206004820152602960248201527f455243313135353a2063616c6c6572206973206e6f74206f776e6572206e6f7260448201526808185c1c1c9bdd995960ba1b60648201526084016103ab565b6107768585858585610eab565b6005546001600160a01b031633146109995760405162461bcd60e51b81526004016103ab906118de565b6001600160a01b0381166109fe5760405162461bcd60e51b815260206004820152602660248201527f4f776e61626c653a206e6577206f776e657220697320746865207a65726f206160448201526564647265737360d01b60648201526084016103ab565b61043881610d78565b6005546001600160a01b03163314610a315760405162461bcd60e51b81526004016103ab906118de565b60009283526006602090815260408085209390935560079052912055565b60006001600160e01b0319821663152a902d60e11b14806103ff57506103ff82610fd5565b80516106369060029060208401906112a5565b6001600160a01b038416610ae75760405162461bcd60e51b815260206004820152602160248201527f455243313135353a206d696e7420746f20746865207a65726f206164647265736044820152607360f81b60648201526084016103ab565b336000610af385611025565b90506000610b0085611025565b90506000868152602081815260408083206001600160a01b038b16845290915281208054879290610b32908490611964565b909155505060408051878152602081018790526001600160a01b03808a1692600092918716917fc3d58168c5ae7397731d063d5bbf3d657854427343f4c083240f7aacaa2d0f62910160405180910390a4610b9283600089898989611070565b50505050505050565b8151835114610bfd5760405162461bcd60e51b815260206004820152602860248201527f455243313135353a2069647320616e6420616d6f756e7473206c656e677468206044820152670dad2e6dac2e8c6d60c31b60648201526084016103ab565b6001600160a01b038416610c235760405162461bcd60e51b81526004016103ab906119ee565b3360005b8451811015610d0a576000858281518110610c4457610c446119bd565b602002602001015190506000858381518110610c6257610c626119bd565b602090810291909101810151600084815280835260408082206001600160a01b038e168352909352919091205490915081811015610cb25760405162461bcd60e51b81526004016103ab90611a33565b6000838152602081815260408083206001600160a01b038e8116855292528083208585039055908b16825281208054849290610cef908490611964565b9250508190555050505080610d03906119d3565b9050610c27565b50846001600160a01b0316866001600160a01b0316826001600160a01b03167f4a39dc06d4c0dbc64b70af90fd698a233a518aa5d07e595d983b8c0526c8f7fb8787604051610d5a929190611a7d565b60405180910390a4610d708187878787876111db565b505050505050565b600580546001600160a01b038381166001600160a01b0319831681179093556040519116919082907f8be0079c531659141344cd1fd0a4f28419497f9722a3daafe3b4186f6b6457e090600090a35050565b816001600160a01b0316836001600160a01b03161415610e3e5760405162461bcd60e51b815260206004820152602960248201527f455243313135353a2073657474696e6720617070726f76616c20737461747573604482015268103337b91039b2b63360b91b60648201526084016103ab565b6001600160a01b03838116600081815260016020908152604080832094871680845294825291829020805460ff191686151590811790915591519182527f17307eab39ab6107e8899845ad3d59bd9653f200f220920489ca2b5937696c31910160405180910390a3505050565b6001600160a01b038416610ed15760405162461bcd60e51b81526004016103ab906119ee565b336000610edd85611025565b90506000610eea85611025565b90506000868152602081815260408083206001600160a01b038c16845290915290205485811015610f2d5760405162461bcd60e51b81526004016103ab90611a33565b6000878152602081815260408083206001600160a01b038d8116855292528083208985039055908a16825281208054889290610f6a908490611964565b909155505060408051888152602081018890526001600160a01b03808b16928c821692918816917fc3d58168c5ae7397731d063d5bbf3d657854427343f4c083240f7aacaa2d0f62910160405180910390a4610fca848a8a8a8a8a611070565b505050505050505050565b60006001600160e01b03198216636cdb3d1360e11b148061100657506001600160e01b031982166303a24d0760e21b145b806103ff57506301ffc9a760e01b6001600160e01b03198316146103ff565b6040805160018082528183019092526060916000919060208083019080368337019050509050828160008151811061105f5761105f6119bd565b602090810291909101015292915050565b6001600160a01b0384163b15610d705760405163f23a6e6160e01b81526001600160a01b0385169063f23a6e61906110b49089908990889088908890600401611aab565b602060405180830381600087803b1580156110ce57600080fd5b505af19250505080156110fe575060408051601f3d908101601f191682019092526110fb91810190611af0565b60015b6111ab5761110a611b0d565b806308c379a01415611144575061111f611b29565b8061112a5750611146565b8060405162461bcd60e51b81526004016103ab9190611516565b505b60405162461bcd60e51b815260206004820152603460248201527f455243313135353a207472616e7366657220746f206e6f6e20455243313135356044820152732932b1b2b4bb32b91034b6b83632b6b2b73a32b960611b60648201526084016103ab565b6001600160e01b0319811663f23a6e6160e01b14610b925760405162461bcd60e51b81526004016103ab90611bb3565b6001600160a01b0384163b15610d705760405163bc197c8160e01b81526001600160a01b0385169063bc197c819061121f9089908990889088908890600401611bfb565b602060405180830381600087803b15801561123957600080fd5b505af1925050508015611269575060408051601f3d908101601f1916820190925261126691810190611af0565b60015b6112755761110a611b0d565b6001600160e01b0319811663bc197c8160e01b14610b925760405162461bcd60e51b81526004016103ab90611bb3565b8280546112b190611913565b90600052602060002090601f0160209004810192826112d35760008555611319565b82601f106112ec57805160ff1916838001178555611319565b82800160010185558215611319579182015b828111156113195782518255916020019190600101906112fe565b50611325929150611329565b5090565b5b80821115611325576000815560010161132a565b80356001600160a01b038116811461135557600080fd5b919050565b6000806040838503121561136d57600080fd5b6113768361133e565b946020939093013593505050565b6001600160e01b03198116811461043857600080fd5b6000602082840312156113ac57600080fd5b81356113b781611384565b9392505050565b634e487b7160e01b600052604160045260246000fd5b601f8201601f1916810167ffffffffffffffff811182821017156113fa576113fa6113be565b6040525050565b600067ffffffffffffffff83111561141b5761141b6113be565b604051611432601f8501601f1916602001826113d4565b80915083815284848401111561144757600080fd5b83836020830137600060208583010152509392505050565b60006020828403121561147157600080fd5b813567ffffffffffffffff81111561148857600080fd5b8201601f8101841361149957600080fd5b6114a884823560208401611401565b949350505050565b6000602082840312156114c257600080fd5b5035919050565b6000815180845260005b818110156114ef576020818501810151868301820152016114d3565b81811115611501576000602083870101525b50601f01601f19169290920160200192915050565b6020815260006113b760208301846114c9565b6000806040838503121561153c57600080fd5b50508035926020909101359150565b600067ffffffffffffffff821115611565576115656113be565b5060051b60200190565b600082601f83011261158057600080fd5b8135602061158d8261154b565b60405161159a82826113d4565b83815260059390931b85018201928281019150868411156115ba57600080fd5b8286015b848110156115d557803583529183019183016115be565b509695505050505050565b600082601f8301126115f157600080fd5b6113b783833560208501611401565b600080600080600060a0868803121561161857600080fd5b6116218661133e565b945061162f6020870161133e565b9350604086013567ffffffffffffffff8082111561164c57600080fd5b61165889838a0161156f565b9450606088013591508082111561166e57600080fd5b61167a89838a0161156f565b9350608088013591508082111561169057600080fd5b5061169d888289016115e0565b9150509295509295909350565b600080604083850312156116bd57600080fd5b823567ffffffffffffffff808211156116d557600080fd5b818501915085601f8301126116e957600080fd5b813560206116f68261154b565b60405161170382826113d4565b83815260059390931b850182019282810191508984111561172357600080fd5b948201945b83861015611748576117398661133e565b82529482019490820190611728565b9650508601359250508082111561175e57600080fd5b5061176b8582860161156f565b9150509250929050565b600081518084526020808501945080840160005b838110156117a557815187529582019590820190600101611789565b509495945050505050565b6020815260006113b76020830184611775565b600080604083850312156117d657600080fd5b6117df8361133e565b9150602083013580151581146117f457600080fd5b809150509250929050565b6000806040838503121561181257600080fd5b61181b8361133e565b91506118296020840161133e565b90509250929050565b600080600080600060a0868803121561184a57600080fd5b6118538661133e565b94506118616020870161133e565b93506040860135925060608601359150608086013567ffffffffffffffff81111561188b57600080fd5b61169d888289016115e0565b6000602082840312156118a957600080fd5b6113b78261133e565b6000806000606084860312156118c757600080fd5b505081359360208301359350604090920135919050565b6020808252818101527f4f776e61626c653a2063616c6c6572206973206e6f7420746865206f776e6572604082015260600190565b600181811c9082168061192757607f821691505b6020821081141561194857634e487b7160e01b600052602260045260246000fd5b50919050565b634e487b7160e01b600052601160045260246000fd5b600082198211156119775761197761194e565b500190565b60008160001904831182151516156119965761199661194e565b500290565b6000826119b857634e487b7160e01b600052601260045260246000fd5b500490565b634e487b7160e01b600052603260045260246000fd5b60006000198214156119e7576119e761194e565b5060010190565b60208082526025908201527f455243313135353a207472616e7366657220746f20746865207a65726f206164604082015264647265737360d81b606082015260800190565b6020808252602a908201527f455243313135353a20696e73756666696369656e742062616c616e636520666f60408201526939103a3930b739b332b960b11b606082015260800190565b604081526000611a906040830185611775565b8281036020840152611aa28185611775565b95945050505050565b6001600160a01b03868116825285166020820152604081018490526060810183905260a060808201819052600090611ae5908301846114c9565b979650505050505050565b600060208284031215611b0257600080fd5b81516113b781611384565b600060033d1115611b265760046000803e5060005160e01c5b90565b600060443d1015611b375790565b6040516003193d81016004833e81513d67ffffffffffffffff8160248401118184111715611b6757505050505090565b8285019150815181811115611b7f5750505050505090565b843d8701016020828501011115611b995750505050505090565b611ba8602082860101876113d4565b509095945050505050565b60208082526028908201527f455243313135353a204552433131353552656365697665722072656a656374656040820152676420746f6b656e7360c01b606082015260800190565b6001600160a01b0386811682528516602082015260a060408201819052600090611c2790830186611775565b8281036060840152611c398186611775565b90508281036080840152611c4d81856114c9565b9897505050505050505056fea2646970667358221220c926f236f8018cb472469c00a4409a3ab46d969f7ccd3dad21247306b237d18764736f6c6343000809003368747470733a2f2f676174657761792e70696e6174612e636c6f75642f697066732f516d636a677950504d727876567438444e6e4c554766386470787a354554416a38594b63484c3856614b4e46324a2f7b69647d2e6a706567",
  "devdoc": {
    "kind": "dev",
    "methods": {
      "balanceOf(address,uint256)": {
        "details": "See {IERC1155-balanceOf}. Requirements: - `account` cannot be the zero address."
      },
      "balanceOfBatch(address[],uint256[])": {
        "details": "See {IERC1155-balanceOfBatch}. Requirements: - `accounts` and `ids` must have the same length."
      },
      "isApprovedForAll(address,address)": {
        "details": "See {IERC1155-isApprovedForAll}."
      },
      "owner()": {
        "details": "Returns the address of the current owner."
      },
      "renounceOwnership()": {
        "details": "Leaves the contract without owner. It will not be possible to call `onlyOwner` functions anymore. Can only be called by the current owner. NOTE: Renouncing ownership will leave the contract without an owner, thereby removing any functionality that is only available to the owner."
      },
      "royaltyInfo(uint256,uint256)": {
        "details": "Returns how much royalty is owed and to whom, based on a sale price that may be denominated in any unit of exchange. The royalty amount is denominated and should be paid in that same unit of exchange."
      },
      "safeBatchTransferFrom(address,address,uint256[],uint256[],bytes)": {
        "details": "See {IERC1155-safeBatchTransferFrom}."
      },
      "safeTransferFrom(address,address,uint256,uint256,bytes)": {
        "details": "See {IERC1155-safeTransferFrom}."
      },
      "setApprovalForAll(address,bool)": {
        "details": "See {IERC1155-setApprovalForAll}."
      },
      "transferOwnership(address)": {
        "details": "Transfers ownership of the contract to a new account (`newOwner`). Can only be called by the current owner."
      },
      "uri(uint256)": {
        "details": "See {IERC1155MetadataURI-uri}. This implementation returns the same URI for *all* token types. It relies on the token type ID substitution mechanism https://eips.ethereum.org/EIPS/eip-1155#metadata[defined in the EIP]. Clients calling this function must replace the `\\{id\\}` substring with the actual token type ID."
      }
    },
    "version": 1
  },
  "userdoc": {
    "kind": "user",
    "methods": {},
    "version": 1
  },
  "storageLayout": {
    "storage": [
      {
        "astId": 189,
        "contract": "contracts/SampleERC1155.sol:SampleERC1155",
        "label": "_balances",
        "offset": 0,
        "slot": "0",
        "type": "t_mapping(t_uint256,t_mapping(t_address,t_uint256))"
      },
      {
        "astId": 195,
        "contract": "contracts/SampleERC1155.sol:SampleERC1155",
        "label": "_operatorApprovals",
        "offset": 0,
        "slot": "1",
        "type": "t_mapping(t_address,t_mapping(t_address,t_bool))"
      },
      {
        "astId": 197,
        "contract": "contracts/SampleERC1155.sol:SampleERC1155",
        "label": "_uri",
        "offset": 0,
        "slot": "2",
        "type": "t_string_storage"
      },
      {
        "astId": 2608,
        "contract": "contracts/SampleERC1155.sol:SampleERC1155",
        "label": "_defaultRoyaltyInfo",
        "offset": 0,
        "slot": "3",
        "type": "t_struct(RoyaltyInfo)2605_storage"
      },
      {
        "astId": 2613,
        "contract": "contracts/SampleERC1155.sol:SampleERC1155",
        "label": "_tokenRoyaltyInfo",
        "offset": 0,
        "slot": "4",
        "type": "t_mapping(t_uint256,t_struct(RoyaltyInfo)2605_storage)"
      },
      {
        "astId": 7,
        "contract": "contracts/SampleERC1155.sol:SampleERC1155",
        "label": "_owner",
        "offset": 0,
        "slot": "5",
        "type": "t_address"
      },
      {
        "astId": 4005,
        "contract": "contracts/SampleERC1155.sol:SampleERC1155",
        "label": "prices",
        "offset": 0,
        "slot": "6",
        "type": "t_mapping(t_uint256,t_uint256)"
      },
      {
        "astId": 4009,
        "contract": "contracts/SampleERC1155.sol:SampleERC1155",
        "label": "limitAmounts",
        "offset": 0,
        "slot": "7",
        "type": "t_mapping(t_uint256,t_uint256)"
      },
      {
        "astId": 4013,
        "contract": "contracts/SampleERC1155.sol:SampleERC1155",
        "label": "amountMinted",
        "offset": 0,
        "slot": "8",
        "type": "t_mapping(t_uint256,t_uint256)"
      }
    ],
    "types": {
      "t_address": {
        "encoding": "inplace",
        "label": "address",
        "numberOfBytes": "20"
      },
      "t_bool": {
        "encoding": "inplace",
        "label": "bool",
        "numberOfBytes": "1"
      },
      "t_mapping(t_address,t_bool)": {
        "encoding": "mapping",
        "key": "t_address",
        "label": "mapping(address => bool)",
        "numberOfBytes": "32",
        "value": "t_bool"
      },
      "t_mapping(t_address,t_mapping(t_address,t_bool))": {
        "encoding": "mapping",
        "key": "t_address",
        "label": "mapping(address => mapping(address => bool))",
        "numberOfBytes": "32",
        "value": "t_mapping(t_address,t_bool)"
      },
      "t_mapping(t_address,t_uint256)": {
        "encoding": "mapping",
        "key": "t_address",
        "label": "mapping(address => uint256)",
        "numberOfBytes": "32",
        "value": "t_uint256"
      },
      "t_mapping(t_uint256,t_mapping(t_address,t_uint256))": {
        "encoding": "mapping",
        "key": "t_uint256",
        "label": "mapping(uint256 => mapping(address => uint256))",
        "numberOfBytes": "32",
        "value": "t_mapping(t_address,t_uint256)"
      },
      "t_mapping(t_uint256,t_struct(RoyaltyInfo)2605_storage)": {
        "encoding": "mapping",
        "key": "t_uint256",
        "label": "mapping(uint256 => struct ERC2981.RoyaltyInfo)",
        "numberOfBytes": "32",
        "value": "t_struct(RoyaltyInfo)2605_storage"
      },
      "t_mapping(t_uint256,t_uint256)": {
        "encoding": "mapping",
        "key": "t_uint256",
        "label": "mapping(uint256 => uint256)",
        "numberOfBytes": "32",
        "value": "t_uint256"
      },
      "t_string_storage": {
        "encoding": "bytes",
        "label": "string",
        "numberOfBytes": "32"
      },
      "t_struct(RoyaltyInfo)2605_storage": {
        "encoding": "inplace",
        "label": "struct ERC2981.RoyaltyInfo",
        "members": [
          {
            "astId": 2602,
            "contract": "contracts/SampleERC1155.sol:SampleERC1155",
            "label": "receiver",
            "offset": 0,
            "slot": "0",
            "type": "t_address"
          },
          {
            "astId": 2604,
            "contract": "contracts/SampleERC1155.sol:SampleERC1155",
            "label": "royaltyFraction",
            "offset": 20,
            "slot": "0",
            "type": "t_uint96"
          }
        ],
        "numberOfBytes": "32"
      },
      "t_uint256": {
        "encoding": "inplace",
        "label": "uint256",
        "numberOfBytes": "32"
      },
      "t_uint96": {
        "encoding": "inplace",
        "label": "uint96",
        "numberOfBytes": "12"
      }
    }
  }
}